:020000040800F2
:1000000000000220D54B0008254C0008254C0008B4
:10001000254C0008254C0008254C00080000000075
:10002000000000000000000000000000254C000857
:10003000254C000800000000254C0008033500088E
:10004000254C0008254C0008254C0008254C0008CC
:10005000254C0008254C0008F9350008FF3500083C
:10006000053600080B36000811360008254C00083C
:10007000254C0008254C0008254C0008254C00089C
:10008000254C0008254C0008254C0008254C00088C
:10009000254C0008254C0008254C000817360008A0
:1000A000E1310008F9300008F53100081D31000881
:1000B000313100084531000859310008254C00084D
:1000C000254C0008254C0008254C0008254C00084C
:1000D000254C0008B5430008CD430008E94300085B
:1000E0002D360008254C0008254C00080932000870
:1000F000A93100081D320008CD310008254C000848
:10010000254C0008254C00086D310008254C0008DE
:10011000054400081D44000881310008953100089D
:10012000254C0008254C0008254C0008254C0008EB
:10013000254C0008254C0008254C0008254C0008DB
:10014000254C0008254C0008254C0008254C0008CB
:10015000254C0008254C0008254C000835440008B3
:10016000254C0008254C0008254C0008254C0008AB
:10017000254C0008254C0008254C00080000000014
:08018000254C0008254C000885
:10019000034613F8012B002AFBD1181A01387047C7
:1001A00001F0FF01102A2BDB10F0070F08D010F828
:1001B000013B013A8B422DD010F0070F42B3F6D12C
:1001C000F0B441EA012141EA014122F007047FF045
:1001D00000070023F0E80256083C85EA010586EA9C
:1001E000010685FA47F5A3FA87F586FA47F6A5FAD8
:1001F00087F68EB9EED1F0BC01F0FF0102F00702E4
:1002000032B110F8013B013A83EA010313B1F8D18E
:100210000020704701387047002D06BF354603386F
:10022000073815F0010F07D1013015F4807F02BFA8
:10023000013015F4C03F0130F0BC0138704700BFF9
:1002400081F0004102E000BF83F0004330B54FEA87
:1002500041044FEA430594EA050F08BF90EA020FF4
:100260001FBF54EA000C55EA020C7FEA645C7FEA87
:10027000655C00F0E2804FEA5454D4EB5555B8BFAA
:100280006D420CDD2C4480EA020281EA030382EA1B
:10029000000083EA010180EA020281EA0303362DAD
:1002A00088BF30BD11F0004F4FEA01314FF4801C80
:1002B0004CEA113102D0404261EB410113F0004F92
:1002C0004FEA03334CEA133302D0524263EB430349
:1002D00094EA050F00F0A780A4F10104D5F1200EE7
:1002E0000DDB02FA0EFC22FA05F2801841F1000142
:1002F00003FA0EF2801843FA05F359410EE0A5F116
:1003000020050EF1200E012A03FA0EFC28BF4CF046
:10031000020C43FA05F3C01851EBE37101F00045FC
:1003200007D54FF0000EDCF1000C7EEB00006EEB09
:100330000101B1F5801F1BD3B1F5001F0CD3490893
:100340005FEA30004FEA3C0C04F101044FEA4452EA
:1003500012F5800F80F09A80BCF1004F08BF5FEA71
:10036000500C50F1000041EB045141EA050130BD51
:100370005FEA4C0C404141EB0101013C28BFB1F563
:10038000801FE9D291F0000F04BF01460020B1FAAE
:1003900081F308BF2033A3F10B03B3F120020CDA81
:1003A0000C3208DD02F1140CC2F10C0201FA0CF05F
:1003B00021FA02F10CE002F11402D8BFC2F1200CC4
:1003C00001FA02F120FA0CFCDCBF41EA0C0190407A
:1003D000E41AA2BF01EB0451294330BD6FEA0404C3
:1003E0001F3C1CDA0C340EDC04F11404C4F12002AE
:1003F00020FA04F001FA02F340EA030021FA04F3C0
:1004000045EA030130BDC4F10C04C4F1200220FA16
:1004100002F001FA04F340EA0300294630BD21FA54
:1004200004F0294630BD94F0000F83F4801306BF1A
:1004300081F480110134013D4EE77FEA645C18BF0E
:100440007FEA655C29D094EA050F08BF90EA020FA5
:1004500005D054EA000C04BF1946104630BD91EA9D
:10046000030F1EBF0021002030BD5FEA545C05D1A0
:100470004000494128BF41F0004130BD14F58004DF
:100480003CBF01F5801130BD01F0004545F0FE4153
:1004900041F470014FF0000030BD7FEA645C1ABF88
:1004A000194610467FEA655C1CBF0B46024650EABF
:1004B000013406BF52EA033591EA030F41F40021EB
:1004C00030BD00BF90F0000F04BF0021704730B571
:1004D0004FF4806404F132044FF000054FF0000146
:1004E00050E700BF90F0000F04BF0021704730B507
:1004F0004FF4806404F1320410F0004548BF4042DC
:100500004FF000013EE700BF42004FEAE2014FEA30
:1005100031014FEA02701FBF12F07F4393F07F4F0B
:1005200081F06051704732F07F4208BF704793F00E
:100530007F4F04BF41F40021704730B54FF4607421
:1005400001F0004521F000411CE700BF50EA010224
:1005500008BF704730B54FF000050AE050EA0102CD
:1005600008BF704730B511F0004502D5404261EB3D
:1005700041014FF4806404F132045FEA915C3FF47E
:10058000D8AE4FF003025FEADC0C18BF03325FEA1B
:10059000DC0C18BF033202EBDC02C2F1200300FACC
:1005A00003FC20FA02F001FA03FE40EA0E0021FAF1
:1005B00002F11444BDE600BF4FEA4102B2F1E0434C
:1005C00024BFB3F5001CDCF1FE5C0DD901F0004C3A
:1005D0004FEAC0024CEA5070B2F1004F40EB83008A
:1005E00008BF20F00100704711F0804F21D113F1B6
:1005F0003872BCBF01F00040704741F480114FEAEF
:100600005252C2F11802C2F1200C10FA0CF320FA77
:1006100002F018BF40F001004FEAC1234FEAD32394
:1006200003FA0CFC40EA0C0023FA02F34FEA4303FE
:10063000CCE77FEA625307D150EA01331EBF4FF087
:10064000FE4040F44000704701F0004040F0FE40A2
:1006500040F40000704700BF53B94AB9002908BFF1
:1006600000281CBF4FF0FF314FF0FF3000F00CB8F6
:10067000ADF1080C6DE904CE05F0ACFDDDF804E049
:10068000DDE9022304B07047704700BF10B5054C88
:10069000237833B9044B13B10448AFF3008001232E
:1006A000237010BD140100200000000098640008B1
:1006B00008B5034B1BB103490348AFF3008008BDE5
:1006C00000000000180100209864000838B50546B5
:1006D0000C46CE20012104F011FB284604F04AFB11
:1006E000CE20002104F00AFB2046BDE8384004F08B
:1006F00041BB002300220360426003720374704711
:1007000010B50121224CCE2004F08EFA0021CE201B
:1007100004F0F4FA06224FF4E131204604F0ACF87C
:1007200040F6B83004F026FB1A49204604F03AF9A6
:100730001949204604F01CF90A220621204604F03B
:100740009BF91649204604F013F90A224A21204653
:1007500004F092F91249204604F00AF90A2207210E
:10076000204604F089F90F49204604F001F90A22D5
:100770000421204604F080F9204604F001F941F2FA
:10078000883004F0F7FABDE8104000F079B800BFF7
:1007900004040020B0640008B8640008BF640008C6
:1007A000C6640008CD64000800F0EEB8024B0348B0
:1007B0004722452100F01CBE80969800940100203D
:1007C00030B5ADF55B7D40F266320021684604F03D
:1007D0005DFE69460A480B4C01F050F96946054632
:1007E000204604F0DFF80849204604F0BDF80A224C
:1007F000691C204604F029F90DF55B7D30BD00BF72
:100800009401002004040020D464000873B5174943
:10081000174C0646174804F0C5F8742002F05DFD39
:100820004B234922054600932521482300F04EF929
:100830002846256000F0CCF920680F4D082100F013
:1008400013FA2068012100F0F9F92068002100F076
:1008500000FA2168284601F02DF8F1B2284600F090
:10086000D7FD02B0BDE87040FFF7AABFDE64000804
:10087000B8010020040400209401002000000000C2
:100880001FB5374804F07CF83649354804F070F855
:100890003549334804F086F87320FFF7B7FF334833
:1008A00001F014F83148732100F0B2FD0122114625
:1008B0002E4800F053FF01212C4800F074FF2B4814
:1008C0003222C82101F024FA012121A3D3E9002317
:1008D000264800F0AFFE20A3D3E90023234800F010
:1008E00098FE224801F028F84FF47A7004F042FA9A
:1008F0001C491B4804F03CF81D49194804F052F803
:100900000121CE2004F0FAF91A48FFF7F2FE15494A
:1009100001A804F03BF9039A0199174804F0BEFDC1
:10092000002116480F2204F0B1FD154900230A20CA
:10093000B3FBF0F200FB1232013330320F2B01F81F
:10094000012FF5D101A804F0DFF805B05DF804FB34
:1009500001B6B5B4B300000009B6B5B4B3000000E9
:1009600004040020B0640008F16400089401002031
:10097000FA640008DC010020E4010020ED01002001
:10098000EB0100200000000010B53B4886B000F0ED
:1009900083FD3A493848202200F00DFE002851D14D
:1009A0003749364C374803F0FDFF04F11003039339
:1009B00004F1080302936068FFF7A6FDCDE900018A
:1009C000314A23683148642104F01AFC2F492D482C
:1009D00003F0CEFF2368606801332360FFF794FDC6
:1009E00023A3D3E90023FFF731FCFFF7E5FD6060A7
:1009F000214800F07BFE04F0BBF904461E4800F0DD
:100A0000F2FD08B3224C1C482022214600F0F6FDDE
:100A100004F11003059304F1080304936068FFF7E1
:100A200073FDCDE9020123681A4A00936421012372
:100A3000164804F0E5FB1549124803F099FF6421BC
:100A400032200DE01449ACE704F092F9001BFA28BB
:100A5000D4D912490B4803F08BFF40F26C7164202B
:100A600006B0BDE81040FFF731BE00BFAFF3008015
:100A70009A9999999999B93F94010020DC01002035
:100A80000B650008040400201E65000830010020EA
:100A9000BC0100204965000816650008386500089B
:100AA000084AD2F82811C16591690166D269426687
:100AB000054A4FF0FF31C0E91A120122A0F8702058
:100AC000704700BF2871000800093D0070B53D4D1A
:100AD000C5660125A0F87050D5B24A2D049C25D8D2
:100AE000394E56F8255002F4E0622A43C265CAB274
:100AF0004A2A2FD8344D55F8222001F4E0611143E1
:100B00000166D9B24A2939D803F4E0622E4B53F872
:100B100021301A434266E2B24A2A3ED82A4951F8A5
:100B2000222004F4E0631343836670BD02F0C00624
:100B3000C02E0CD1CF2D0AD8244D02F03F0602F46E
:100B4000E06255F82660204D55F82650CDE74FF06D
:100B5000FF32CBE701F0C005C02D0CD1CF2A0AD857
:100B60001A4A01F03F0501F4E06152F82550164A97
:100B700052F82520C3E74FF0FF31C1E703F0C00270
:100B8000C02A07D1CF2905D8104A03F03F0152F8F7
:100B90002110B9E74FF0FF32BCE704F0C003C02BCF
:100BA0000CD1CF2A0AD8094B04F03F0253F8221087
:100BB000054A04F4E06352F82120B4E74FF0FF3314
:100BC000B2E700BF00093D0028710008E870000886
:100BD000002210B406495DF8044B80F8512001232F
:100BE000C16680F8703080F8712000F0AFB800BFA7
:100BF00000093D0017B46B4683E80600C16E009AF9
:100C00009142044605D1B0F87010BDF8042091421D
:100C10000FD000989B88E066A4F8703094F870308C
:100C200094F87120E16E204603B05DF8044B00F0AB
:100C30008DB803B05DF8044B7047704710B40B4695
:100C400080F8701090F87120C16E5DF8044B00F0D0
:100C50007DB810B40A4680F8711090F87030C16EFB
:100C60005DF8044B00F072B870B504460D4669B1EA
:100C700000F058F8B0FBF5F194F8703094F871205A
:100C8000E1662046BDE8704000F060B80049F3E737
:100C900000093D0007B5002A8DF807100DF1070186
:100CA0004FF001030CBF0A46002200F071F99DF8D5
:100CB000070003B05DF804FB0148FFF7F1BE00BF79
:100CC000FC01002030B591FAA1F391FAA1F1B3FA39
:100CD00083F3C4685B000325B1FA81F105FA03F3DD
:100CE000490024EA03038A401A43C26030BD000071
:100CF000084A0346106863B1074A934201D101F0E4
:100D000003BC064A934201D101F0EEBB044A934270
:100D1000FAD0704734000020003001400038004015
:100D2000003C0040074B10B51C6840B10649406EBE
:100D300002F0CCFD18B1BDE81040FFF7D9BF204646
:100D400010BD00BF34000020DC6A00082DE9F04F20
:100D50000E4685B015461F460446002800F0C180A7
:100D60008149006E02F0B2FD80498146E06D02F0DB
:100D7000ADFD7F498346606E02F0A8FD7D49804647
:100D8000A06E02F0A3FD8246B9F1000F00F0A98029
:100D9000BBF1000F00F0A580B8F1000F00F0A180BA
:100DA0005946484602F0B9FD51468146404602F098
:100DB000B4FD01468046484602F0AFFDA065B9F19A
:100DC000000F00F08E80B8F1000F00F08A8000283C
:100DD00000F08780A26E2060511C0CBF4FF400729F
:100DE0004FF480224FF48273A2616360FFF780FFAB
:100DF000B6EB500F78D2B6EB900F77D2B6EBD00FA0
:100E000076D2B6EB101F75D2B6EB501F74D2B6EB8C
:100E1000901F73D2B6EBD01F2CBF30233823E36171
:100E2000002D6DD0022D6DD0013D18BF01256D0044
:100E30000123B7FA87F7C4E904537F090723002683
:100E40009F40E3624849206EA660C4E90876A66226
:100E5000E66002F023FD4549E06D02F01FFD606E83
:100E6000434902F01BFD2369B342636EC3F30311D0
:100E700014BF01220222082998BF3F4803F00F0344
:100E800098BF50F821003D4988BF3046022A51F8EA
:100E9000231018BF0122FFF715FF3649A06E02F09C
:100EA000FDFC2368364A93422ED100230193354B33
:100EB0005A6C42F480525A645A6C02F48052019285
:100EC000019A5A6A42F480525A625A6A22F4805253
:100ED0005A62204601F029FB2268136843F0400360
:100EE000136005B0BDE8F08F002398E7082396E76C
:100EF000102394E7182392E7202390E728238EE716
:100F00002B4696E7002394E71F4A934214D100230F
:100F100002931C4B1A6C42F480421A641A6C02F45D
:100F200080420292029A1A6A42F480421A621A6A53
:100F300022F480421A62CCE7144A9342C9D10023BA
:100F40000393104B1A6C42F400421A641A6C02F4B8
:100F500000420392039A1A6A42F400421A621A6A21
:100F600022F40042E6E700BF846B0008306B000803
:100F7000DC6A0008886A000808000020306A00085F
:100F8000003001400038024000380040003C004082
:100F90002DE9F0410D4616461C4633B3076800F0B4
:100FA0000FFF8046BB689907FCD5D5B115F8013B0A
:100FB0003B73BB68DA07FCD53B7B0EB106F8013BFF
:100FC00000F0FEFEA0EB0800B0F57A7F04F1FF34DC
:100FD00009D2002CE6D12046BB681B06FCD4BDE834
:100FE000F081FF23E4E70120F6E70220F7E70000A5
:100FF00010B50446407903F081FE074B0749084AC3
:101000001B68B3FBF2F3226A486853434A68121A1A
:101010009342FBDC10BD00BF34000020001000E054
:1010200040420F00034600795B79834201D003F010
:1010300065BE704713B5836800930123ADF8043093
:1010400002AB13E9060004460068FFF7D3FD002158
:10105000204602B0BDE81040FFF7CABF10B50446F5
:101060000121FFF7C5FF2068BDE81040FFF7E5BD8F
:1010700070B504460E461546FFF7DCFF46F020012A
:1010800020680022FFF706FE002220732946206810
:10109000FFF700FE2046FFF7E1FF70BDF8B50446FC
:1010A0000F4615461E46FFF7C5FF20680022394649
:1010B000FFF7F0FD2E442073B54203D12046FFF721
:1010C000CDFFF8BD20680022FF21FFF7E3FD05F802
:1010D000010BF1E738B504460D46FFF7ABFF294693
:1010E00020680022FFF7D6FD00222073FF21206830
:1010F000FFF7D0FD05462046FFF7B0FF284638BD74
:10110000F8B504460F4615461E46FFF793FF2068C4
:10111000002247F02001FFF7BDFD2E442073B542A9
:1011200003D12046FFF79AFFF8BD15F8011B206890
:101130000022FFF7AFFDF2E738B504460D4663B174
:10114000FFF778FF2068002245F02001FFF7A2FD9D
:1011500020732046FFF782FF38BDBDE83840FFF717
:1011600087BF2DE9F0419846037E06460F46154697
:10117000BBB9447BA24228BF2546641BE4B230467B
:10118000FFF758FF306800224146FFF783FD3D44DA
:101190003073AF420DD19CB93046FFF75FFFBDE819
:1011A000F081B2FA82F4202A4FEA541428BF202595
:1011B000E5E717F8011B30680022FFF76BFDE8E751
:1011C000002230681146013CFFF764FDE4B2E2E71B
:1011D000F8B5037E05460F461646B3B9447BA242D6
:1011E00028BF2646A41BE4B22846FFF723FF286841
:1011F00000226121FFF74EFD3E442873B74209D11A
:1012000084B92846FFF72AFFF8BD202A28BF2026E8
:101210000024E9E728680022FF21FFF73BFD07F8DB
:10122000010BEBE728680022FF21013CFFF732FDAC
:10123000E4B2E5E710B504460123FF22E221FFF7FF
:101240007BFF207B10BD10B504460123FF22E12166
:10125000FFF772FF207B10BD10B5FF22044601236B
:101260001146FFF769FF207B10BD00001FB501F09C
:1012700001030293C1F342030193C1F300130093EE
:10128000C1F38012C1F34013024803F049FF05B0D7
:101290005DF804FB6B6500082DE9F04106460E4839
:1012A000DFF83C8015461C4603F03AFF2C44E4B2BC
:1012B000A54204D1BDE8F041084803F099BF294692
:1012C0003046FFF707FF6F1C0146FFB2404603F0B0
:1012D00027FF3D46ECE700BFB0650008BD6500088C
:1012E000B56500082DE9F04706461948DFF8688023
:1012F000DFF8689014461D4603F012FF2544EDB256
:10130000AC4204D1BDE8F047124803F071BFF07D54
:1013100001F0E5FF04F01F010246F37D82463046EE
:10132000FFF7BCFE4046671C03F0FAFEF47D013C6B
:10133000FFB25444A245234604D9504601F0D1FFE0
:101340003C46DDE719784846013C03F0E9FEF1E749
:10135000B0650008BD650008ED680008B8650008C4
:101360002DE9F84F8046C07DDFF860B014461D4679
:10137000894601F0B4FF25440746EDB20026AC4291
:1013800005D1384601F0ADFF3046BDE8F88F04F0D6
:101390001F0198F817303A46404604F1010AFFF75A
:1013A0007DFE98F81740013C5FFA8AFA3C44A74258
:1013B000234601D95446E2E709EB06001A7859465C
:1013C000023603F051FF013CF6B2F0E7BF650008BA
:1013D000054B826803600023837348F6B8039A4282
:1013E0009CBF024B83607047FC01002080969800F0
:1013F00010B583602023437300234271838201224E
:1014000005230171C37502760362FFF7E1FF10BD8A
:101410007D290A4628BF7D220521FFF729BE052127
:10142000FFF758BE202928BF2021012938BF0121FC
:1014300038B5054641731124214601346A7B28469C
:10144000E4B2FFF715FE172CF6D138BD0379FF2B58
:1014500004D04079FF3818BF012070470020704742
:1014600038B50446FFF7F2FF054690B1207963795D
:10147000834206D0012103F0D7FB6079012103F0FC
:10148000D3FB00212046FFF7CDFD01212046FFF7C9
:10149000AFFD284638BD000010B500210446FFF717
:1014A000C1FD134B1349144A1B68B3FBF2F3E26905
:1014B000486853434A68121A9342FBDCA37D13B178
:1014C0002046FFF7C0FEE27C02F0FE02E2742046F6
:1014D0000021FFF7CDFD02212046FFF7FBFD40F084
:1014E0000102D2B220460221BDE81040FFF7C0BD84
:1014F00034000020001000E040420F0008B5C27C1C
:1015000012F0020112D142F00202C274FFF7B0FDE4
:101510000749084B084A1B684868B3FBF2F341F2DD
:10152000883253434A68121A9342FBDC08BD00BF5D
:10153000001000E03400002040420F0038B5002BBE
:101540009DF810500CBFA023B0230446FFF709FEFE
:101550002DB120460121BDE83840FFF763BD38BDFD
:1015600037B5012500950446FFF7E8FF03F000FCBE
:1015700005462046FFF770FE10F0300F0FD0002117
:101580002046FFF74FFD702207212046FFF770FD30
:10159000237BDB060DD52046FFF755FE06E003F062
:1015A000E7FB401B5F28E4D901236376002003B0EA
:1015B00030BD0120FBE70023FFF7D2BF38B50C4652
:1015C00017210546FFF786FDC3070AD42378FF2BB2
:1015D00005D02846FFF740FEC0F3420020700120EE
:1015E00038BD0020FCE707B5FF230DF107018DF89A
:1015F0000730FFF7E3FF03B05DF804FB10B50446C6
:10160000FFF7E6FD20464022BDE810400721FFF726
:101610002FBD13B50446CDE900230A21C37D6A46D8
:10162000FFF76EFDE37D6A4610212046FFF768FD57
:1016300002B010BD37B50446CDE900230D46F1B91F
:10164000C27D69460E3003F0C2FF01236375104965
:10165000E37D495D6A462046FFF752FD02212046A0
:10166000FFF738FD0B4B5A5D0123934040EA03021C
:10167000D2B202212046FFF7FBFC03B030BD0529A2
:10168000FBD8034B012D595CE1D001236A46E3E707
:101690003D690008436900088A1E12F0FF0238B550
:1016A000054608D002F0030422460321FFF7E0FCC0
:1016B0000234EC7538BD0321FFF7DAFC0224F8E7A9
:1016C00038B50C4602210546FFF704FD064B1A5DAE
:1016D0000123934020EA0302D2B202212846FFF7F9
:1016E000C7FC04B96C7538BD4369000810B50446E1
:1016F000FFF704FFE27C42F00102E2740021204681
:10170000FFF7B6FC702207212046FFF7B1FC01214C
:101710002046FFF787FC617D41B1E37D04F10E02B5
:1017200020460A21BDE81040FFF7EABC2046BDE88C
:101730001040FFF7C5BF10B50446FFF77BFC2068DB
:1017400000225021FFF7A6FA00222073732120689F
:10175000FFF7A0FA2046FFF781FC10BD70B50D46DB
:10176000062106461446FFF7B5FC032D28BF0325C6
:1017700000F0F80304EB450443EA04023046D2B219
:10178000BDE870400621FFF773BC08B50621FFF7DE
:10179000A1FCC0F3410008BD08B50821FFF79AFC81
:1017A00000F00F0008BD70B50E4606210546FFF794
:1017B00091FC022E00F0D70414D0012E0BBF412261
:1017C0005522082300231C43EA61284622460621AD
:1017D000FFF74EFC06212846FFF77CFC031B58420E
:1017E000584170BD9B222023EDE738B50446052003
:1017F00003F0C0FA5F2204212046FFF739FC0021E4
:101800002046FFF7D0FF1D212046FFF763FC054669
:101810002046FFF790FF1D212046FFF75BFC2A1AA8
:1018200053425341237548B1854202D12046FFF708
:1018300082FF00221D212046FFF71AFC00252A46C0
:101840002046A5751C21FFF713FC204625763F2274
:101850000121FFF70DFC032220460221FFF708FCBF
:1018600020462021FFF7DEFD20460521FFF714FF6B
:1018700020464C21FFF7CCFD702207212046FFF7C0
:10188000F7FB2046FFF7D6FC2046FFF7DCFC0C22D6
:1018900029462046FFF7ECFB29462046FFF71AFCB5
:1018A000E0742046FFF72AFEE07CA0F10E035842C8
:1018B000584138BD10B501600446FFF7D1FD20B195
:1018C0002046BDE81040FFF790BF10BD10B504469C
:1018D0000068FFF77DF92046FFF7C2FD20B12046E2
:1018E000BDE81040FFF781BF10BD08B50621FFF726
:1018F000F1FB00F02800202804D0A0F10803584292
:10190000584108BD0220FCE738B501210546FFF724
:10191000E1FB002104462846FFF7DCFB00F008034A
:1019200023430246E87413F0FF0004D012F0040FC2
:101930000CBF0120022038BD10B53B4B8168B1FBC4
:10194000F3F10446C9B2394803F0EAFB2046FFF739
:1019500083FC01462046FFF789FC204634490223D8
:101960000A22FFF7BFFC2046324904230C22FFF76E
:1019700093FC2046304901231022FFF7B3FC204698
:101980002E4906231122FFF787FC01231A46204621
:101990002B49FFF781FC20462A4901230222FFF749
:1019A0007BFC2046284901230522FFF775FC2046D1
:1019B000264901230622FFF76FFC20462449012314
:1019C0000022FFF769FC1C22224902232046FFF770
:1019D00063FC2046FFF789FF1F4B53F820101F4878
:1019E00003F09EFB227D1E4B1E4853F8221003F08D
:1019F00097FB2046FFF788FF1B4B53F820101B482E
:101A000003F08EFB2046FFF7C0FE194B53F8201061
:101A1000184803F085FB2046FFF7BEFEBDE81040E6
:101A20000146154803F07CBB40420F00C465000826
:101A3000D9650008E6650008F3650008FC65000844
:101A4000076600080E660008186600081F66000892
:101A50002866000830660008046A00083E66000830
:101A6000E86900084D660008BC6900085B6600086C
:101A7000846900086B660008796600082DE9F04F5C
:101A80009DB00379974A10938368B3FBF2F3DBB2FE
:101A900004468A46119390F80590934DFFF7BFFCDA
:101AA0001B902046FFF7BBFC00F5166083B2204672
:101AB0001293FFF71AFF8D4B53F8203015932046F1
:101AC000FFF763FE8A4B062153F820301693204619
:101AD000FFF700FB00F0010055F820301793204677
:101AE000FFF712FF834B032153F820301893204651
:101AF000FFF7F0FA00F00300831C13930421637BCB
:101B000014932046FFF7E6FA00090130FA23C0B229
:101B100010FB03FB04212046FFF7DCFA082100F04C
:101B20000F062046FFF7D6FA0821C0F30717204614
:101B3000FFF7D0FA1D2100F00F082046FFF7CAFA80
:101B400000F001001D2155F8303019932046FFF7B1
:101B5000C1FAC0F340001C2155F820301A932046EA
:101B6000FFF7B8FA28B11D212046FFF7B3FAC0F3FA
:101B7000800055F820300F931A9B0E93199B5E49F5
:101B8000CDF824B0CDE90C83149B0893139B0793E5
:101B9000189B0693179B0593169B0493159B039321
:101BA000129B02931B9B0193119B00934A46109B2F
:101BB000DFF834915046CDE90A6703F055FB012167
:101BC00085B206462046FFF785FA3F28014628469B
:101BD00001D0002950D1003918BF0121504459F8D3
:101BE0002120464903F040FB284485B200212046CD
:101BF000FFF770FA0AEB050610F0010F0CBF542234
:101C0000522224353E49DFF804B1304603F02CFB64
:101C10001AFA85F1012310222046FFF7A1FBAEB28C
:101C2000851902212046FFF755FAADB280460026FD
:101C300048FA06F303F00103033332460AEB0500CA
:101C400059F823302F4903F00FFB06F10A022F1831
:101C5000012EBDB2D2B21AFA87F736D8012339461F
:101C60002046FFF77DFB284485B20136062EDFD1E2
:101C700028461DB0BDE8F08F11F0200F0CBF3022B8
:101C8000312211F0100F0CBF3023312311F0080F57
:101C90000CBF3026312611F0040F0CBF302731273E
:101CA00011F0020F01F001010CBF4FF0300C4FF0AA
:101CB000310C3031CDE902C1CDE900671249504401
:101CC0000A3503F0D1FAADB290E711462046FFF78E
:101CD00001FA023502465946384603F0C5FAADB25C
:101CE000C3E700BF40420F004C690008046A0008C7
:101CF00084690008BC69000885660008B7680008A8
:101D0000CB680008F1680008BA680008BF650008E1
:101D10000F2928BF0F210F2A28BF0F2242EA0112E4
:101D2000D2B20421FFF7A4B97047000038B50E4BBA
:101D30001A784FF47A73B3FBF2F30C4A0546106835
:101D4000B0FBF3F000F0A6F8044658B90F2D09D8FF
:101D5000024629464FF0FF3000F04AF8044B204677
:101D60001D6038BD0120FCE7000000203400002089
:101D70000400002008B50B4B1A6842F400721A6088
:101D80001A6842F480621A601A6842F480721A601B
:101D9000032000F01BF80020FFF7C8FFFFF7C4FF87
:101DA000002008BD003C0240034A044B11681B7828
:101DB0000B441360704700BF700200200000002039
:101DC000014B1868704700BF700200200749CA68BD
:101DD00022F4E0620302120403F4E063120C1343E2
:101DE00043F0BF6343F40033CB60704700ED00E085
:101DF000164B30B5DC68C4F30224C4F10703251D7B
:101E0000042B28BF0423062D4FF0FF358CBF033C65
:101E1000002405FA03F321EA0303A54022EA0502A0
:101E2000A340002843EA0203ACBF00F16040084A27
:101E30004FEA0313B8BF00F00F00DBB2AABF00F5F2
:101E40006140135480F8003330BD00BF00ED00E066
:101E500014ED00E0002807DB044A4109012300F0EB
:101E60001F00834042F82130704700BF00E100E0CE
:101E700000280CDB4309064900F01F002033012233
:101E8000824041F82320BFF34F8FBFF36F8F70471D
:101E900000E100E00138B0F1807F0BD24FF0E02389
:101EA000054A5861F02182F823100020072298612A
:101EB0001A6170470120704700ED00E0002808DB40
:101EC0004309044900F01F0001226033824041F8B9
:101ED0002320704700E100E0704708B5FFF7FCFFE2
:101EE00008BD704710B5044650B1437903F0FF02B6
:101EF00013B90271FFF7F5FF01236371002010BDD4
:101F00000120FCE710B5044640B10223037101F043
:101F100097FA002020616071207110BD0120FCE75C
:101F200010B5012358B1046801F01001226803FACA
:101F300001F122EA010222600371002010BD18465F
:101F4000FCE770B50446866DFFF73AFF94F835302C
:101F5000022B054606D0802363650120002384F808
:101F6000343070BD23681A6822F016021A605A696C
:101F700022F080025A61226C0AB9A26C1AB11A6866
:101F800022F008021A601A6822F001021A6023681F
:101F9000186810F0010007D1E26D3F239340B36051
:101FA000012384F83530D9E7FFF70AFF401B0528E5
:101FB000EDD920230320636584F83500CEE790F83F
:101FC0003530022B03D0802343650120704702681F
:101FD000052380F83530136823F0010313600020D7
:101FE00070470000044A5169014208B502D05061AF
:101FF00001F0ECFA08BD00BF003C01402DE9F341BF
:10200000044640B30368DE0710D423689D075BD401
:102010002368190700F19D8023685A0700F1BD80ED
:10202000A369002B40F0248100202CE08D4B9A689E
:1020300002F00C02042A07D09A6802F00C02082A67
:102040000BD15B68590208D5864B1B689A03DCD517
:102050006368002BD9D1012015E06368814DB3F589
:10206000803F13D12B6843F480332B60FFF7A8FE29
:102070007C4E054633689B03C7D4FFF7A1FE401B87
:102080006428F7D9032002B0BDE8F081B3F5A02F92
:1020900004D12B6843F480232B60E3E72A6822F401
:1020A00080322A602A6822F480222A60002BDDD147
:1020B000FFF786FE06462B689F03A6D5FFF780FE36
:1020C000801B6428F7D9DDE7664B9A6812F00C0F85
:1020D00007D09A6802F00C02082A11D15B685D02F1
:1020E0000ED4604A1368990702D5E368012BB2D178
:1020F0001368216923F0F80343EAC103136087E7FB
:10210000E268594BB2B101221A60FFF759FE554DF2
:1021100006462B689B0707D52B68226923F0F80336
:1021200043EAC2032B6073E7FFF74AFE801B0228D5
:10213000EFD9A7E71A60FFF743FE4A4E054633681A
:102140009F077FF565AFFFF73BFE401B0228F6D9DE
:1021500098E76269444B82B10122C3F8802EFFF7F1
:102160002FFE404E0546736F9B073FF555AFFFF7B7
:1021700027FE401B0228F6D984E7C3F8802EFFF71C
:102180001FFE384E0546736F9F077FF545AFFFF77B
:1021900017FE401B0228F6D974E7324B1A6C12F076
:1021A000805228D101921A6C42F080521A641B6C42
:1021B00003F080530193019B01272C4D2B68D80518
:1021C0001BD5A368274D012B27D12B6F43F00103AB
:1021D0002B67FFF7F5FD234E054641F28838336F34
:1021E0009A0739D5002F3FF41BAF1E4A136C23F01A
:1021F0008053136414E70027DFE72B6843F48073F0
:102200002B60FFF7DDFD06462B68D905D9D4FFF713
:10221000D7FD801B0228F7D934E7052B04D12B6F9B
:1022200043F004032B67D0E72A6F22F001022A67EC
:102230002A6F22F004022A67002BCAD1FFF7C0FDE3
:1022400041F2883806462B6F9B07CBD5FFF7B8FDC8
:10225000801B4045F7D915E7FFF7B2FD401B40450D
:10226000BDD90FE70038024000004742007000402F
:10227000374DAA6802F00C02082A3ED0022B354BDB
:102280004FF000021A662BD1FFF79AFD06462B6825
:1022900099011FD4D4E907321343626A43EA8213D7
:1022A000E26A43EA0263A26A5208013A43EA02433D
:1022B0006B60284B264D01221A66FFF781FD04460C
:1022C0002B689A013FF5B0AEFFF77AFD001B02289C
:1022D000F6D9D7E6FFF774FD801B0228D7D9D1E6DF
:1022E000FFF76EFD04462B689B017FF59DAEFFF75F
:1022F00067FD001B0228F6D9C4E6012B3FF4ABAE04
:102300006B68E26903F4800191427FF4A4AE216A14
:1023100003F03F028A427FF49EAE616A47F6C072C4
:102320001A40B2EB811F7FF496AEA26A520803F402
:102330004031013AB1EB024F7FF48DAEE26A03F017
:102340007063B3EB026F14BF012000209BE600BF57
:102350000038024000004742134908B58B6803F07B
:102360000C03042B1CD0082B1CD14A684B6849680D
:1023700013F4800314BF0D480D48C1F3881118BF32
:10238000002302F03F02A1FB0001FEF765F9064BB6
:102390005B68C3F3014301335B00B0FBF3F008BD9E
:1023A0000248FCE70248FAE70038024000127A00CF
:1023B0000024F4002DE9F0410D46044610B9012037
:1023C000BDE8F081434B1A6802F007028A4228D325
:1023D00021688F072DD4C80740D43E4B1A6802F0FD
:1023E0000702AA4265D8226851076BD4130707D5A4
:1023F000394A2169936823F4604343EAC103936037
:10240000FFF7AAFF344B354A9B68C3F30313D35C31
:10241000D840334B1860334B1868FFF787FC002017
:10242000CEE7CAB21A701B6803F007038B42C6D10D
:10243000CEE7294B11F0040F1EBF9A6842F4E05218
:102440009A600E0742BF9A6842F460429A609A68A6
:10245000A06822F0F00202439A60BCE762681E4B5B
:10246000012A1CD11B6813F4003FA8D01A4EB36890
:1024700023F003031343B360FFF7A2FC41F2883853
:102480000746B368626803F00C03B3EB820FA4D075
:10249000FFF796FCC01B4045F3D9032090E7911E3F
:1024A00001291B6802D813F0007FDEE713F0020F4A
:1024B000DBE7EAB21A701B6803F00703AB427FF454
:1024C0007EAF90E70449E0688B6823F4E053034350
:1024D0008B608BE7003C024000380240786A0008BD
:1024E0003400002004000020044B054A9B68C3F31D
:1024F0008223D35C034A1068D840704700380240FA
:10250000706A000834000020044B054A9B68C3F33E
:102510004233D35C034A1068D84070470038024009
:10252000706A000834000020704710B50446002887
:1025300055D0436A002B4ED14268B2F5827F00D05D
:10254000C3610023A36294F8513003F0FF0223B962
:1025500084F850202046FFF7E7FF2168A068A269B1
:10256000022384F851300B6823F040030B6063684A
:1025700000F4044003F482730343E06800F4006055
:102580000343206900F002000343606900F001008A
:10259000034302F400700343E06900F03800034392
:1025A000206A00F080000343A06A00F40050034357
:1025B0000B60636A120C03F0100302F004021A436A
:1025C0004A60CB6923F40063CB610020012360657E
:1025D00084F8513010BD0023C0E90433B1E7012075
:1025E000F8E770477047036870B5DD681E69B1078A
:1025F00004460DD5AA070BD56FF002021A6101221D
:1026000002779B699B0769D000F065FE0023237762
:10261000710710D56A070ED523686FF004021A619E
:10262000022222779B6913F4407F20465CD000F0A1
:1026300052FE0023237733070FD528070DD52368D3
:102640006FF008021A6104222277DB69990720469D
:1026500050D000F040FE00232377F20610D5EB06A1
:102660000ED523686FF010021A6108222277DB6909
:1026700013F4407F204643D000F02DFE0023237743
:10268000F00708D5E90706D523686FF001021A6143
:10269000204600F0FDFD320608D52B0606D523683E
:1026A0006FF080021A61204600F0B7F8700608D576
:1026B000690606D523686FF040021A612046FFF7CD
:1026C00091FFB20622D5AB0620D523686FF0200219
:1026D00020461A61BDE8704000F09EB800F0F9FD98
:1026E0002046FFF77EFF91E700F0F3FD2046FFF75D
:1026F00078FF9EE700F0EDFD2046FFF772FFAAE7A6
:1027000000F0E7FD2046FFF76CFFB7E770BD000063
:10271000294A0368904212D0B0F1804F0FD0A2F541
:102720007C4290420BD002F58062904207D002F5C5
:102730008062904203D002F57842904208D14A6804
:1027400023F070031343CA6823F44073134316E065
:102750001A4A9042F7D002F580629042F3D002F517
:1027600080629042EFD0A2F598329042EBD002F511
:1027700080629042E7D002F580629042E3D04A69DD
:1027800023F08003134303608B68C3620B6883628A
:10279000094B984203D003F58063984201D10B693D
:1027A0000363012343610369DB0742BF036923F02D
:1027B00001030361704700BF000001400040014079
:1027C00010B5044630B390F83D3003F0FF021BB95A
:1027D00080F83C2001F022FB0223206884F83D3081
:1027E000211DFFF795FF012384F84630002084F86F
:1027F0003E3084F83F3084F8403084F8413084F82B
:10280000423084F8433084F8443084F8453084F80A
:102810003D3010BD0120FCE770477047026802F1AF
:102820000C0353E8003F23F490730C3242E800316C
:1028300002680029F2D102F1140353E8003F23F0AB
:10284000010302F1140C4CE800310029F3D1036BB1
:10285000012B0BD102F10C0353E8003F23F01003CE
:1028600002F10C0C4CE800310029F3D1202380F850
:1028700042300023036370470268C16838B51369AA
:1028800023F440530B431361054683680069D16804
:10289000034368690343E86921F4164121F00C0100
:1028A00003430B43D3605369A96923F440730B437B
:1028B00053611F4B9A4203D003F580639A4224D19F
:1028C000FFF722FEEA691921B2F5004FD5E900436E
:1028D000A0FB01011CD1DA184FF0000545EB050300
:1028E000FDF7BAFE6422B0FBF2F102FB1103DB003C
:1028F0003233B3FBF2F303F007025B0002EB011289
:1029000003F4F8731344A36038BDFFF7EDFDD9E776
:102910009A009B0FFDF7A0FE6422B0FBF2F102FBD0
:1029200011031B013233B3FBF2F303EB0113EAE7AC
:1029300000100140F7B505460C4617461E462A68AA
:10294000136834EA030301D1002021E0701CF7D0A2
:10295000FFF736FAC01B86421CD3DEB12B68DA685B
:102960005107ECD5802CEAD0402CE8D01A68120729
:10297000E5D5002401941A6801925B68019328460A
:10298000019BFFF74BFF08236B6485F84040012053
:1029900003B0F0BD0320FBE7704710B5044648B311
:1029A00090F8413003F0FF021BB980F84020FFF798
:1029B000F3FF2268242384F84130D36823F40053C2
:1029C000D3602046FFF758FF23681A6922F490422B
:1029D0001A615A6922F02A025A61DA6842F40052F6
:1029E000DA6000202023606484F8413084F84230AB
:1029F000606310BD0120FCE710B5044668B390F891
:102A0000413003F0FF021BB980F84020FFF7C4FFFC
:102A10002268242384F84130D36823F40053D36020
:102A20002046FFF729FF23681A6922F490421A61B1
:102A30005A6922F022025A615A6942F008025A6128
:102A4000DA6842F40052DA6000202023606484F8DF
:102A5000413084F84230606310BD0120FCE72DE96D
:102A6000F843984690F84130202B04460E4617460E
:102A70003FD100293FD0002A3DD0212300254564C5
:102A800080F84130FFF79CF9A368A784B3F5805F15
:102A90008146E78403D123690BB935461E46E38C92
:102AA0009BB253B943464A4640212046FFF742FFB6
:102AB000202350B984F841300AE043464A46802139
:102AC0002046FFF737FF28B1202384F84130032048
:102AD000BDE8F88322684EB935F8023BC3F308031A
:102AE0005360E18C013989B2E184D8E716F8013BE3
:102AF000F6E70220ECE70120EAE790F84130202BCE
:102B000010D189B182B1C28401628284016800233C
:102B10002122436480F84120CA6842F08002CA60E2
:102B200018467047022070470120704708B5806B37
:102B30000023C385C38401F0FFFB08BD704790F8F4
:102B40004230222B07B542D181680268836AB1F511
:102B5000805F3FD1016900293FD15268C2F308026A
:102B600023F8022B8362C38D013B9BB2C385002BEC
:102B70002DD10268D16821F02001D160D16821F403
:102B80008071D160516921F001015161202280F8EA
:102B900042204363026B012A026828D1036302F1D9
:102BA0000C0353E8003F23F0100302F10C0C4CE837
:102BB00000310029F3D11368DB0605D501911368B4
:102BC000019353680193019B818DFFF7B7FF03B019
:102BD0005DF804FB39B9016929B95268D2B21A709B
:102BE000836A0133BEE7526802F07F02F7E701F023
:102BF0009DFBECE703681A6873B51607D9685D6931
:102C0000044608D1960668D58D0666D502B0BDE8A3
:102C10007040FFF794BF05F0010001F49075054383
:102C20005BD0D60705D5CD0542BF636C43F00103E9
:102C30006364530704D518B1636C43F00203636403
:102C4000960704D518B1636C43F004036364150759
:102C500007D501F0200303431EBF636C43F0080354
:102C60006364636C002B32D0920604D58B0602D5C8
:102C70002046FFF764FF26687369626C03F0400327
:102C800002F0080253EA0205204622D0FFF7C6FDF3
:102C900073695E0618D5226802F1140353E8003FF9
:102CA00023F04003143242E800310029F3D1E06BF5
:102CB00050B1744B0365FFF782F940B1E06B036DCF
:102CC00002B0BDE870401847204601F035FB02B065
:102CD00070BD01F031FB6564F9E7206B012840F01D
:102CE0009580D50640F19280C80640F18F80002281
:102CF00001921A6801925A680192019A5A69520621
:102D00004ED5E16B0A68526892B2002ADFD0A08DDE
:102D10009042DCD9E285CA69B2F5807F36D003F1F2
:102D20000C0252E8002F22F4807203F10C0040E8FC
:102D300000210029F3D103F1140252E8002F22F000
:102D4000010203F1140040E800210029F3D103F14E
:102D5000140252E8002F22F0400203F1140040E870
:102D600000210029F3D1202284F84220216303F1BD
:102D70000C0252E8002F22F0100203F10C0040E890
:102D800000210029F3D1E06BFFF7DBF80223636336
:102D9000E38DA18DC91A89B22046FFF7CFFE96E7D1
:102DA000E28DE08DA18D80B292B200288FD0891A79
:102DB00089B200298BD003F10C0252E8002F22F4D3
:102DC000907203F10C0545E800200028F3D103F1CF
:102DD000140252E8002F22F0010203F1140545E825
:102DE00000200028F3D1202284F84220206303F140
:102DF0000C0252E8002F22F0100203F10C0545E806
:102E000000200028F3D102236363C5E7160628D506
:102E10000D0626D594F84120212A7FF458AFA168E9
:102E2000226AB1F5805F17D12169A9B932F8021B76
:102E3000C1F3080159602262E28C013A92B2E28445
:102E4000002A7FF444AFDA6822F08002DA60DA68A0
:102E500042F04002DA603AE7511C216212785A606F
:102E6000EAE750067FF533AF4A067FF530AFDA6800
:102E700022F04002DA60202384F84130204601F03D
:102E800058FA24E72D2B000890F84030012B11D080
:102E90000268242380F84130D36823F00C0343F008
:102EA0000803D360202380F84130002380F84030AD
:102EB000184670470220704790F84030012B11D01F
:102EC0000268242380F84130D36823F00C0343F0D8
:102ED0000403D360202380F84130002380F8403081
:102EE000184670470220704790F8412090F8420041
:102EF00010437047C2850023828502694364222300
:102F000080F84230816203681AB1DA6842F4807254
:102F1000DA605A6942F001025A61DA6842F020022E
:102F2000DA600020704770B490F84260202E06D11D
:102F300041B13AB10024046370BCFFF7DBBF02204B
:102F400070BC70470120FBE7836810B504462BB1C5
:102F50000322014698470023C4E9023310BD836869
:102F600010B5044613B1032201469847204610BD10
:102F7000294A9042034633D0B0F1804F32D0A2F5B7
:102F80007C42904230D002F5806290422ED002F511
:102F9000806290422CD002F5806290422AD002F5E5
:102FA0008062904228D002F57042904226D04FF6BF
:102FB000FF701A4A934223D0194A934222D0194AE9
:102FC000934221D0184A934220D0184A93421FD0EE
:102FD000174A93421ED04FF6FF7398421BD1FEE76B
:102FE0000020E6E70120E7E70220E8E70320E9E721
:102FF0000420EAE70520EBE70620ECE7072070470E
:1030000008207047092070470A2070470B2070473E
:103010000C2070470D207047000001400040014027
:10302000004401400048014000180040001C0040DE
:1030300000200040014670B5044651F8100FFFF71C
:1030400097FF0546084600F095FD094A002342F81F
:10305000253004F16006E36004F1B005B54204D008
:10306000103D2846FFF77BFFF8E7204670BD00BF04
:1030700074020020F8B504460846FFF779FF23697B
:1030800003B1FEE71B4DA36404F10C0245F82020B8
:1030900004F110060E22C4E90C33C4E90E33C4E96E
:1030A0001033C4E91623216184F82C3084F84C30A5
:1030B00084F84D30E460304600F064FC04F16005B3
:1030C00004F1B00728461035FFF73EFFBD42F9D1A5
:1030D0000023C4E900334FF6FF72C4E90632C4E9A5
:1030E0000833A36063618023A3623046BDE8F840E3
:1030F000FFF766BB7402002010B5074C206810B1C2
:103100000430FFF770FA606A20B1BDE81040043067
:10311000FFF769BA10BD00BF74020020034B1868A6
:1031200010B10430FFF75FBA704700BF740200208F
:10313000034B586810B10430FFF755BA704700BF11
:1031400074020020034B986810B10430FFF74BBAAB
:10315000704700BF74020020034BD86810B10430E0
:10316000FFF741BA704700BF74020020034B186993
:1031700010B10430FFF737BA704700BF7402002067
:10318000034B586910B10430FFF72DBA704700BFE8
:1031900074020020034B986910B10430FFF723BA82
:1031A000704700BF7402002010B5074CE06910B1F1
:1031B0000430FFF718FA206B20B1BDE8104004304E
:1031C000FFF711BA10BD00BF74020020034BD8698D
:1031D00010B10430FFF707BA704700BF7402002037
:1031E000034B186A10B10430FFF7FDB9704700BFF8
:1031F00074020020034B986A10B10430FFF7F3B952
:10320000704700BF74020020034BD86A10B104302D
:10321000FFF7E9B9704700BF74020020034B586BF9
:1032200010B10430FFF7DFB9704700BF740200200F
:103230000022C0E90022C0E902227047F8B5044626
:103240000E4600F1600500F1B00728461035FFF783
:10325000EFFFBD42F9D10023204623613146FFF73D
:1032600009FF2046F8BD826810B50AB903F010F9CD
:10327000BDE81040C368184708B500B9FEE700F084
:103280007FFB0068836E13B16030FFF7ECFF08BD71
:10329000FFF7F2BF10B500B9FEE7037F013B072B34
:1032A00010D8DFE803F004140F100F0F0F120124E1
:1032B00000F066FB0068063400EB041083680BB175
:1032C000FFF7D1FF10BD0324F2E70424F0E7022446
:1032D000EEE7FFF7DFBFFFF7DDBF01F06BBD01F0E9
:1032E00069BD01F06FBD01F06DBD00008AB0002323
:1032F00008287CD8DFE800F00513202D3A475461F8
:103300006E0001933B4B3C481A6B42F001021A637A
:103310001B6B03F001030193019B0AB070470293FA
:10332000344B36481A6B42F002021A631B6B03F0EF
:1033300002030293029BF0E703932E4B30481A6B73
:1033400042F004021A631B6B03F004030393039B14
:10335000E3E70493274B2B481A6B42F008021A63E9
:103360001B6B03F008030493049BD6E70593214BE2
:1033700025481A6B42F010021A631B6B03F010030E
:103380000593059BC9E706931A4B20481A6B42F038
:1033900020021A631B6B03F020030693069BBCE715
:1033A0000793144B1A481A6B42F040021A631B6BC6
:1033B00003F040030793079BAFE708930D4B1548B5
:1033C0001A6B42F080021A631B6B03F080030893B0
:1033D000089BA2E70993074B0F481A6B42F48072CF
:1033E0001A631B6B03F480730993099B95E7002014
:1033F00093E700BF00380240000002400004024092
:1034000000080240000C024000100240001402407C
:1034100000180240001C02400020024008B5074985
:1034200000F076FAC0F3C430012802D0022802D09E
:10343000FEE7002008BD1020FCE700BFC4700008B4
:103440000268094B9A420DD103F5E2331A6A42F041
:1034500000521A621A6A22F000521A621A6C22F0A2
:1034600000521A64704700BF0074004010B50B4949
:1034700086B0044600F02AFA019060B12046FFF7BA
:10348000CDFF30F01003014605D101A8FEF748FD3D
:1034900001A8FEF737FD06B010BD00BFC4700008DC
:1034A000F8B51449144E074600F010FAFFF760FD16
:1034B00056F82030044673B9B020FFF70EFF0D49CF
:1034C0000546384600F002FA01462846FFF7B6FEE8
:1034D00056F824301D6056F824301C6844B120464C
:1034E000FFF7A8FD2046B021BDE8F840FFF7FBBE7E
:1034F000F8BD00BF886D000874020020FEF760BCB4
:10350000704708B5FEF750FCFEF7E7FCFFF7F8FF41
:1035100008BD704784B0114B00220192196C41F034
:1035200080511964196C01F0805101910199029246
:10353000596C41F480415964596C01F48041029105
:10354000029903921A6B42F480521A631B6B03F4C4
:1035500080530393039B04B0704700BF00380240C0
:103560000C4BD3F8FC20D2015EBFD3F8FC2042F014
:103570008072C3F8FC20084B00225A601A6842F09F
:1035800001021A6000BF00BF00BF5868B0FA80F0A7
:103590004009704700ED00E0001000E008B5FFF7BB
:1035A000B9FFFFF7DDFFFEF7E5FBFFF7B2FF00F025
:1035B00085FFBDE808400148FEF794BC2C000020C0
:1035C0000023C0E90033C0E902337047002301281B
:1035D00003F101020AD11422DBB25343054A181D3C
:1035E0001044816829B11A441369184740081346EA
:1035F000EDE77047AC0200200120FEF7F3BC02208B
:10360000FEF7F0BC0420FEF7EDBC0820FEF7EABC94
:103610001020FEF7E7BC38B505242025A8B2FEF738
:10362000E1FC013C4FEA4505F8D138BD38B5062428
:103630004FF48065A8B2FEF7D5FC013C4FEA450582
:10364000F8D138BD344A104608B5062300F8043BCB
:10365000FFF7B6FF072302F118001375FFF7B0FF5D
:10366000082302F12C0082F82830FFF7A9FF092374
:1036700002F1400082F83C30FFF7A2FF0A2302F17A
:10368000540082F850301721FFF79AFF02F16800CA
:1036900082F86410FFF794FF02F17C0082F8781042
:1036A000FFF78EFF02F1900082F88C10FFF788FF81
:1036B00002F1A40082F8A010FFF782FF02F1B80027
:1036C00082F8B4102821FFF77BFF02F1CC0082F8CA
:1036D000C810FFF775FF02F1E00082F8DC10FFF779
:1036E0006FFF02F1F40082F8F010FFF769FF02F5B6
:1036F000847082F80411FFF763FF02F58E7082F880
:103700001811FFF75DFFBDE8084002F5987082F8D8
:103710002C11FFF755BF00BFAC02002038B5054C97
:10372000A4F5A075143C201DFFF719FCAC42F9D19B
:1037300038BD00BFEC03002030B591FAA1F391FA37
:10374000A1F1B3FA83F3C4685B000325B1FA81F1F8
:1037500005FA03F3490024EA03038A401A43C260CE
:1037600030BD431C04D00C3151F80C3C5A1C01D123
:1037700000207047834201F10C01F5D10120704710
:10378000F8B5471C06460D4600D1FEE700F00F02D3
:10379000414BC0F3031053F82240FFF7A7FD94FA02
:1037A000A4F3B3FA83F3876803225B0002FA03F3FE
:1037B00094FAA4F2B2FA82F227EA03075200032332
:1037C00093403B4305F007018360032903D8DFE8FA
:1037D00001F05F612C03FEE7032394FAA4F2B2FA2E
:1037E00082F206685200032707FA02F226EA02066E
:1037F00094FAA4F2B2FA82F25200934001393343B0
:103800000129036005D843682A074CBF2343A3431B
:103810004360C5F30112012A02D0022A18BF002218
:103820002146BDE8F840FFF787BFC5F306227F2A8F
:1038300001D10223D1E7360716D5230A93FAA3F65E
:10384000B6FA86F6476A93FAA3F3B6004FF00F0C68
:10385000B3FA83F30CFA06F69B0027EA060602FA8F
:1038600003F333434362E4E794FAA4F3B3FA83F334
:10387000066A9B000F2707FA03F326EA030694FA69
:10388000A4F3B3FA83F39B009A4032430262D0E779
:103890000023A2E70123A0E7306A0008431C06D1F9
:1038A0007047834202D18968FFF76ABF0C310B6809
:1038B0005A1CF6D1FEE70B685A1C01D10020704754
:1038C000834201D1486870470C31F4E7431C01D0B2
:1038D000FFF7F1BF002070474B6813B94FF0FF307E
:1038E0007047834201D1086870470C31F4E708B192
:1038F000FFF7F2BF4FF0FF30704703460868421CE5
:1039000000D17047984201D1886870470C31F5E7C3
:10391000431C01D0FFF7F1BF704703468B420846B6
:1039200004D01BB100290CBF1846002070470000CE
:103930001049D1F8883043F47003C1F888300E4B39
:103940001A6842F001021A6000229A601A6822F096
:10395000847222F480321A60084A5A601A6822F48B
:1039600080221A604FF43F02DA604FF000638B60F0
:10397000704700BF00ED00E0003802401030002426
:103980000438704703686D4A93428EB02AD10022F2
:1039900000926B4A516C41F001015164526C02F08B
:1039A00001020092009A674A93422AD100220592AE
:1039B000634A116C41F010011164126C02F01002A4
:1039C0000592059A604A93422AD100230A935C4BE0
:1039D0005A6C42F480225A645B6C03F480230A938D
:1039E0000A9BA9E0B3F1804F2AD100220192544AE8
:1039F000116C41F001011164126C02F0010201929C
:103A0000019A524A93422AD1002206924C4A116CE2
:103A100041F020011164126C02F020020692069A15
:103A20004B4A93422AD100230B93454B1A6C42F028
:103A300040021A641B6C03F040030B930B9B7BE06A
:103A4000444A93422AD1002202923D4A116C41F02D
:103A500002011164126C02F002020292029A3E4AC2
:103A600093422AD100220792354A516C41F002015B
:103A70005164526C02F002020792079A374A93424D
:103A80002AD100230C932E4B1A6C42F080021A6448
:103A90001B6C03F080030C930C9B4DE0304A934267
:103AA0002AD100220392264A116C41F004011164CC
:103AB000126C02F004020392039A2A4A93422BD119
:103AC000002208921E4A516C41F480315164526CBC
:103AD00002F480320892089A234A93422CD10023A0
:103AE0000D93174B1A6C42F480721A641B6C03F42A
:103AF00080730D930D9B1FE01C4A93427FF453AFDC
:103B0000002204920E4A116C41F008011164126CFB
:103B100002F008020492049A154A93427FF452AFCD
:103B200000230993064B5A6C42F400325A645B6CD2
:103B300003F400330993099B0EB070470000014065
:103B400000380240001000400048014000140040CE
:103B5000001800400004004000040140001C004028
:103B6000000800400040014000200040000C0040E0
:103B70000044014003683B4A934215D13A494A6CDC
:103B800022F001024A64394A934215D136490A6C3F
:103B900022F010020A64364A934215D102F57042AF
:103BA000536C23F480235BE0B3F1804F16D12E4990
:103BB0000A6C22F001020A642E4A934216D12A4965
:103BC0000A6C22F020020A642B4A934216D102F5B5
:103BD0000832136C23F0400313647047274A934262
:103BE00015D121490A6C22F002020A64244A934248
:103BF00015D11D494A6C22F002024A64214A9342BF
:103C000015D102F50732136C23F08003E4E71E4A56
:103C1000934215D114490A6C22F004020A641B4A2B
:103C2000934215D110494A6C22F480324A64184AF2
:103C30009342D2D102F50632136C23F48073CBE7A2
:103C4000144A93429FD108490A6C22F008020A6480
:103C5000114A93429FD102F57442536C23F400330E
:103C600053647047000001400038024000100040DB
:103C700000480140001400400018004000040040CB
:103C800000040140001C00400008004000400140CA
:103C900000200040000C004000440140431C3AD08A
:103CA000294B98423AD018D8A3F54063984237D0B0
:103CB0000BD8A3F50063984234D003F58063984293
:103CC00032D0B0F1804F31D0FEE7204B98422FD058
:103CD00003F5806398422DD0F6E71D4B98422DD016
:103CE0000CD8A3F56443984226D003F5604398426C
:103CF00026D0A3F56443984220D0E5E7154B9842BF
:103D00001ED003F5806398421CD0A3F5006398424F
:103D1000DAD1182070476FF00D0070472B207047E4
:103D2000322070471D2070471E2070471C207047AE
:103D300036207047372070472D2070472C20704761
:103D4000192070471A2070470018004000100040EA
:103D50000004014000440140431C3AD02B4B9842E0
:103D60003AD01CD8A3F58053984237D00BD8A3F58E
:103D70000063984234D003F58063984232D0B0F1AA
:103D8000804F31D0FEE7224B98422FD003F580635D
:103D900098422DD0A3F5006398422BD0F2E71D4B3B
:103DA000984229D00CD8A3F58043984226D003F539
:103DB0008063984224D0A3F56443984222D0E1E77F
:103DC000154B984220D003F580639842DAD11A202F
:103DD00070476FF00D0070472C20704732207047FD
:103DE0001D2070471E2070471C20704737207047E9
:103DF0002B20704736207047182070471B207047D3
:103E00002E2070472D20704719207047001C00405D
:103E100000140040004001400044014038B5FFF765
:103E2000B1FD04460068FFF739FFD4E91212FDF72F
:103E3000DFFF2068FFF732FFFEF70CF8226810461C
:103E4000FFF78AFF05461046FFF728FF85420BD093
:103E50002846D4E91212FDF7CBFF2068FFF77CFF5C
:103E6000BDE83840FDF7F6BF38BD00002DE9F04F42
:103E700089B004468A46406D8F499846129B01934B
:103E80009146FFF723FD8D498346A06DFFF71EFD88
:103E90008B490646E06DFFF719FD8A490546206EFD
:103EA000FFF714FD0746BBF1000F00F00281A26D81
:103EB000013202D0002E00F0FC80E26D013202D00F
:103EC000002D00F0F680226E013202D0002F00F0AB
:103ED000F08031465846FFF720FD29462060FFF765
:103EE0001CFD39462060FFF718FD2060002800F017
:103EF000E080754B98424FD103F594335A6A42F0F3
:103F000010025A625A6A22F010025A620022029289
:103F10005A6C42F010025A645B6C03F01003029377
:103F2000029B2523A4F864306349606DFFF7B6FC5B
:103F30001EB16249A06DFFF7B1FC2DB16049E06D83
:103F4000FFF7ACFC4FF480752FB15E49206E45F44D
:103F50000075FFF7A3FC94F865205C4B94F96400AE
:103F6000C4F80C90271D43F822702368C4E9013A75
:103F7000019B0022C4E904380C23C4E906352262FF
:103F80000121FDF735FF3846002E40F08D8009B045
:103F9000BDE8F04FFEF730BD4D4B984217D103F509
:103FA000FA331A6A42F400321A621A6A22F40032B0
:103FB0001A62002203921A6C42F400321A641B6CDB
:103FC00003F400330393039B4FF49373AAE7414B2D
:103FD000984217D103F5F8331A6A42F480221A6224
:103FE0001A6A22F480221A62002204921A6C42F4A5
:103FF00080221A641B6C03F480230493049B40F218
:1040000027238FE7344B984217D103F5F6331A6A0A
:1040100042F400221A621A6A22F400221A62002272
:1040200005921A6C42F400221A641B6C03F40023FC
:104030000593059B4FF44D7374E7284B984217D1B5
:1040400003F5F4331A6A42F480121A621A6A22F4EF
:1040500080121A62002206921A6C42F480121A64CC
:104060001B6C03F480130693069B40F2354359E71B
:104070001B4B98427FF458AF03F592335A6A42F0D3
:1040800020025A625A6A22F020025A6200220792E3
:104090005A6C42F020025A645B6C03F020030793D1
:1040A000079B40F247533DE709B0BDE8F04FFEF7EC
:1040B00074BC09B0BDE8F08FF86C0008686C0008AB
:1040C000206C0008D86B000800100140EC030020B1
:1040D0000044004000480040004C004000500040B8
:1040E0000014014010B4019C20B101945DF8044B10
:1040F000FFF7BCBE5DF8044B70470000094B13B5D9
:10410000DC6D09492046FFF7E1FB40B10748002379
:1041100044651A4600934FF41651FFF7A7FE02B00C
:1041200010BD00BF28710008F86C0008380000209E
:1041300008B5074B90F8652053F82200FEF7D4FE2F
:1041400000F02200A0F122035842584108BD00BFF0
:10415000EC03002008B5074B90F8652053F82200C7
:10416000FEF7C2FE00F02100A0F1210358425841A1
:1041700008BD00BFEC0300202DE9F0472B4C06469C
:104180000D46FDF71DFE94F86530052B074613D844
:1041900094F86520264B53F82240A4F104084046C9
:1041A000FFF7D8FFD0BB4FF47A73AAB2314620464E
:1041B000FEF755FC40B908E01E4B1F49D3F85C8060
:1041C0004046FFF783FB18BB00252846BDE8F08773
:1041D0005AF8233043B994F865300133DBB2052B2C
:1041E00084F86530F4D90CE049464046FFF76EFB91
:1041F00094F865205AF822301B688342EBD1052AD7
:10420000C6D9FFF77BFF94F86530052BC0D9DBE7F3
:10421000DFF81CA0DFF820900023E0E7FDF7D0FDD9
:10422000C01BB0F57A7FBAD3CEE700BF38000020BC
:10423000EC03002028710008F86C000870B50E46E9
:10424000054610B94FF0FF3070BDFFF771FF04460F
:104250000028F7D12946012211F8663F337095F8FE
:104260006500034B53F82000FEF75DFE2046EBE7A8
:10427000EC03002038B50D460446B8B1FFF758FFEF
:10428000A0B994F96400E564FDF7F2FD94F86500C7
:10429000074B04F1660153F820000122FEF743FEAC
:1042A00094F96400BDE83840FDF7D4BD38BD00BFC7
:1042B000EC03002038B515460446B8B1016590F905
:1042C0006400FDF7D5FDE36EB4F8761094F8650050
:1042D00013FA81F1064BAAB253F82000FEF70DFC49
:1042E00094F96400BDE83840FDF7B4BD38BD00BFA7
:1042F000EC03002048B1836D013306D190F86520AE
:10430000024B53F82200FEF7BFBD7047EC030020BC
:1043100048B1836D013306D190F86520024B53F804
:104320002200FEF7C9BD7047EC030020836C0438FF
:104330001847C36C0438184730B5044650F80439A0
:104340001D6815F0010585B012D0002200921A6890
:1043500000925B680093009BFFF7EAFE40BB0122DE
:1043600004F16201204605B0BDE83040FEF7DBBD38
:10437000196811F0020106D001951A6801925B6874
:104380000193019BE8E71A6812F0040206D002913B
:104390001A6802925B680293029BDDE719680907BD
:1043A000DAD503921A6803925B680393039BD3E701
:1043B00005B030BD08B52520FDF780FD024B18681B
:1043C000BDE80840FEF716BCEC03002008B5262027
:1043D000FDF774FD034B586818B1BDE80840FEF7BF
:1043E00009BC08BDEC03002008B52720FDF766FDD9
:1043F000034B986818B1BDE80840FEF7FBBB08BD49
:10440000EC03002008B53420FDF758FD024BD868B6
:10441000BDE80840FEF7EEBBEC03002008B53520F0
:10442000FDF74CFD024B1869BDE80840FEF7E2BB02
:10443000EC03002008B54720FDF740FD024B58690A
:10444000BDE80840FEF7D6BBEC0300200A4903464E
:10445000086810B50344EFF30882934205D9074B6F
:104460000C221A604FF0FF3010BD054A054C121B9C
:104470009342F4D20B60F7E7B400002084060020DA
:1044800000000220000400004FF0FF3070474FF49E
:1044900000534B6000207047012070470020704798
:1044A00000207047FEE70000024B16221A604FF012
:1044B000FF307047840600200120704730B595B06A
:1044C000102200210AA800F0E1FF1422002103A815
:1044D00000F0DCFF244C00220092236C43F0805358
:1044E0002364236C03F080530093009B1F4B0192C5
:1044F0001A6842F480421A601B6803F480430193F7
:10450000019B01214FF480330225CDE908134FF4BC
:1045100080030820CDE90E534FF4A873CDE91003B2
:10452000072308A812951393FDF768FD00B1FEE775
:104530000F23CDE9033505904FF4A0524FF480537B
:10454000052103A8CDE90623FDF734FF00B1FEE7FE
:104550000290236B43F480132363236B03F48013D3
:104560000293029B15B030BD00380240007000403D
:10457000B0F80831B0F80421981A00F03F007047F5
:10458000B0F80831B0F804219BB293421ABFD0F8BA
:10459000FC30985C4FF0FF30704790F80631B0F86F
:1045A0000A01C0B2834227BFC3F13F03C018C01A3B
:1045B00000F1FF30704707B503688DF807105B689E
:1045C00001220DF10701984703B05DF804FB13B514
:1045D0000DF107010446FFF731FE88B9B4F87430D5
:1045E000B4F87020013303F03F03934208D0B4F8CD
:1045F0007420A16E9DF8070092B28854A4F874301C
:1046000002B010BDB0F87620816F11FA82F202F08C
:104610003F0210B5A0F87620B0F87610B0F87220FE
:1046200089B28A421AD0B0F87640B0F87610A4B2B7
:104630004032121B544289B204F03F0402F03F02A0
:10464000C1F1400158BF62428A4228BF0A468267D0
:104650000349FFF72FFE4FF0FF3010BD0020FCE7AD
:10466000054600082DE9F843036804469B68884620
:104670001646984701232374D4F8EC30B4F8067139
:1046800001338146C7F1400709D194F8103133B1A5
:10469000002384F8103104F19400FFF72BFE236807
:1046A00020469B6898470028F9D03546AF4225D36D
:1046B0004D4523D8B4F80631D4F800015A19402AE0
:1046C000184430D82A46414600F081FF2F46B4F8FE
:1046D00006311D4405F03F05A4F8065104F1940588
:1046E0002846FFF737FD30B91649C4F80C713A4631
:1046F0002846FFF7DFFD3046BDE8F8834F452368C5
:1047000028BF4F463A4641465B6820469847236893
:1047100020469B689847ED1BB844B4F80671814663
:10472000C7F14007C2E7C3F140073A46414600F0EF
:104730004EFFD4F80001EA1B08EB070100F047FF29
:10474000C5E700BF05460008C0F8F030009BC0F880
:10475000F430914208BF4FF0FF3100F11103C0E97E
:104760003A21C0F8FC3000F151020023A0F80831D2
:10477000C0E94023A0F80A3170470000F7B54FF4B4
:104780007A7317460022C0E901231C4B03604FF0E7
:10479000FF33C0F8EC301A4B1A4E04469C42F06DC1
:1047A0000D4605D1B36DC4F8EC30C4F8E8000AE05A
:1047B0001549FFF78BF8854215D1B36DC4F8EC307D
:1047C000F36DC4F8E830012F4FF0FF3308BFC4F891
:1047D000EC3000932046D4E93A214FF0FF33FFF745
:1047E000B3FF03B0F0BD09492846FFF780F806493A
:1047F000C4F8EC002846FFF77AF8D6E764720008A0
:104800000404002028710008F86C0008686C000897
:10481000037C70B504460D46A3B1FDF7D1FA0646F8
:10482000B4F80621B4F80A319BB29A420AD0002D9E
:10483000F8D0FDF7C5FA801B8542F1D8B4F80A31EB
:10484000A4F8063170BD0021FFF7E2BFD0F8EC30CC
:10485000013310B504460ED10368DB68984794F81D
:10486000103143B9012384F8103104F19400BDE8FC
:104870001040FFF74DBD10BD02F00703023BDBB255
:10488000042B73B5144680F8112198BF1B4AC0F859
:10489000141198BFD25C04F0300388BF0022302B83
:1048A000054607D101324FF4C063082A09D0092A0E
:1048B0001BD0FEE714F020031CD001324FF48063BC
:1048C000F3E70022C4F3C00405F194066403304604
:1048D0000094FFF707FC2846FFF7B8FF0849304669
:1048E00002B0BDE87040FFF7C5BC4FF48052E9E765
:1048F0001A46E7E7082AFBD0DBE700BF547200083E
:10490000CF45000810B50446FFF7A0FFB4F8082112
:10491000B4F8043192B29A421FBFD4F8FC20D05CA4
:10492000013303F03F0314BFA4F804314FF0FF300C
:1049300010BD0000024903480022FFF71FBF00BF5F
:10494000001001400404002070B505460C460846DE
:1049500049B1FBF71DFC2B680246214628465B68DF
:10496000BDE87040184770BD08B5FFF7EDFF08BD02
:1049700008B5FFF7E9FF08BD03681B68184700008A
:1049800008B50249FFF7E0FF08BD00BF82660008D6
:1049900038B50546FFF7D8FF04462846FFF7F0FF75
:1049A000204438BDFFF7F4BF70B50D46144630B152
:1049B000461E012E05D811462846FFF7DDFB20468E
:1049C00070BD03685B689847F9E730B58BB000238A
:1049D000012A0C468DF8243098BF0A2209A92546E1
:1049E000B4FBF2F404FB125303F0FF03092B94BF52
:1049F00030333733DBB2AA4201F8013DEFD9FFF77C
:104A0000A3FF0BB030BD2DE9F04107460E4614461A
:104A10002AB90368BDE8F0411B68C9B218470A2AE1
:104A200005D1002905DBBDE8F041FFF7CEBFD2B2CA
:104A3000F9E72D21FFF7A0FF2246054671423846CF
:104A4000FFF7C3FF2844BDE8F08138B50546FFF7FE
:104A5000DAFF04462846FFF793FF204438BD10B420
:104A60002AB902685DF8044B1268C9B210475DF8B4
:104A7000044BD2B2FFF7A9BF38B50546FFF7EFFFE9
:104A800004462846FFF77CFF204438BD10B5044695
:104A900000F06EF9E060236820465B6998470028C3
:104AA00008DA00F065F9E368C01AA3689842F2D307
:104AB0004FF0FF3010BDF8B507460D468E180C4676
:104AC000B44201D1601BF8BD3846FFF7DFFF031E7B
:104AD000F8DB04F8013BF3E72DE9F041074688468F
:104AE00016461D4673B100243846FFF7CFFF031E5C
:104AF00005DB434503D033550134A542F4D12046AC
:104B0000BDE8F0811C46FAE710B50446006800F0E5
:104B100059F9204610BD10B50446006808B100F0F0
:104B200051F90023C4E90133236010BD38B50446B0
:104B30000D460068013100F0FBF910B1C4E9000531
:104B4000012038BD036810B5044613B143688B4299
:104B500007D22046FFF7EAFF20B1A3680BB922680D
:104B60001370012010BD70B50E461146044615465F
:104B7000FFF7E8FF20B92046FFF7CDFF204670BDC4
:104B80002068A560314600F01AFDF7E738B500232C
:104B9000C0E90033044683600D4639B10846FBF78F
:104BA000F7FA294602462046FFF7DDFF204638BDCA
:104BB00008B50320FDF70AF9BDE8084000F0F6B893
:104BC00008B5AFF30080FBF79BFDFBF7EDFD00F0B0
:104BD000DFF8FAE7DFF834D0FEF7AAFE0C480D49FB
:104BE0000D4A002302E0D458C4500433C4188C4248
:104BF000F9D30A4A0A4C002301E013600432A242AE
:104C0000FBD300F0B5FCFFF7DBFF7047000002208C
:104C10000000002014010020B072000814010020E0
:104C20008C060020FEE70000C3B24A2B2DE9F041BC
:104C30000D462AD82C4A52F8233000F4E0641C4375
:104C4000621C4ED0294EC4F3031704F00F0856F827
:104C5000273023FA08F3DB0710D525492046FEF755
:104C600080FD18B32046FEF701FC56F827300122DC
:104C700002FA08F223EA020346F82730052D1FD86E
:104C8000DFE805F01F2B2527292D00F0C002C02AE0
:104C900027D1CF2B25D8174B00F03F0200F4E0645A
:104CA00053F82220104B53F82230C8E7124920460F
:104CB000FEF757FD0028D8D02046FEF7F1FBD4E7D9
:104CC000FEE700212046BDE8F041FEF759BD102166
:104CD000F8E72021F6E70321F4E70121F2E70921B3
:104CE000F0E7BDE8F08100BF287100081C05002036
:104CF000C4700008E8700008886D0008C3B24A2B31
:104D000017D8174A52F8233000F4E0601843C0F374
:104D10000313082B98BF134A00F00F0098BF52F8F6
:104D20002320114B88BF002253F82030A9B1936192
:104D3000704700F0C002C02A0CD1CF2B0AD80B4B11
:104D400000F03F0200F4E06053F82220044B53F8D7
:104D50002230DBE74FF0FF30D9E71B04E7E700BF65
:104D60002871000808000020306A0008E870000878
:104D7000FEF7C4BB38B5044648B1FEF7BFFB054695
:104D800000F016F8FEF7BAFB431BA342F8D338BD78
:104D900008B5044B2BB10448FFF7EAFB08B1AFF3A9
:104DA000008008BD0000000004040020FEF7F6BBF0
:104DB00070470000024B0146186800F02DB800BF94
:104DC000C4000020024B0146186800F00FBC00BF71
:104DD000C400002070B50F4E0C463168054611B96D
:104DE00000F0A4FB30602146284600F09FFB431CE6
:104DF00003D14FF0FF34204670BDC41C24F00304DF
:104E0000A042F8D0211A284600F090FB0130F2D1E0
:104E1000EFE700BF400500202DE9F843CD1C25F049
:104E2000030508350C2D38BF0C25002D064601DB87
:104E3000A94204D90C2333600020BDE8F883DFF8D1
:104E4000D48000F069F8D8F800301C4644BB2946ED
:104E50003046FFF7BFFF431C044658D1D8F8004046
:104E60002746002F43D1002C4BD0236839463046CB
:104E700004EB030900F05AFB814542D121686D1A09
:104E800029463046FFF7A6FF01303AD023682B446D
:104E90002360D8F800305A6862BBC8F800700FE091
:104EA0002268521B20D40B2A17D96119A34225600E
:104EB00018BF5960636808BFC8F8001062514B60A2
:104EC000304600F02FF804F10B00231D20F00700FE
:104ED000C21A1CBF1B1AA350AFE76268A3420CBFE3
:104EE000C8F800205A60EBE723466468AEE73C460A
:104EF0007F68B6E71A465B68A342FBD10023536084
:104F0000DEE70C233360304600F00CF894E70560D0
:104F1000D6E700BF44050020014800F04EBB00BFAB
:104F200088060020014800F049BB00BF8806002029
:104F3000024B0A460146186800F002B8C40000207F
:104F40002DE9F041074614460D4621B9BDE8F04170
:104F50001146FFF761BF2AB900F048FB25462846F5
:104F6000BDE8F08100F08CFB8442064602D8B4EB29
:104F7000500FF4D821463846FFF74EFF804608B957
:104F80004546ECE7B4422246294628BF324600F0A7
:104F90001EFB2946384600F029FBF1E7002310B537
:104FA0000446C0E90033C0E904338360818143666D
:104FB000C2818361194608225C3000F067FA0D4B0C
:104FC00063620D4BA3620D4BE3620D4B23630D4BEC
:104FD00024629C4206D003F16802944202D0D0338E
:104FE0009C4205D104F15800BDE8104000F0E4BA3D
:104FF00010BD00BFA9520008CB520008035300089F
:105000002753000848050020024A0349034800F0DE
:1050100069B800BFB8000020E55F0008C8000020A4
:1050200041680C4B994210B5044601D000F0DAFFFC
:10503000A168094B994202D0204600F0D3FFE168F5
:10504000064B994204D02046BDE8104000F0CABF8C
:1050500010BD00BF48050020B00500201806002044
:1050600010B50B4B0B4C0C4A1A6020460022042151
:10507000FFF794FF04F1680001220921FFF78EFF7A
:1050800004F1D0000222BDE810401221FFF786BFD4
:10509000800600204805002009500008014800F063
:1050A0008CBA00BF89060020014800F087BA00BF13
:1050B0008906002010B50446FFF7F0FF236A1BB1F4
:1050C000BDE81040FFF7F0BF044B2362044B1B68A0
:1050D000002BF5D1FFF7C4FFF2E700BF2150000815
:1050E000800600202DE9F84307468846144600262E
:1050F000D4E90195B9F1010905D52468002CF7D14F
:105100003046BDE8F883AB89012B07D9B5F90E30DD
:10511000013303D029463846C04706436835E9E7DE
:105120000FB407B5064904AB086853F8042B81682F
:10513000019300F02FFC03B05DF804EB04B070475E
:10514000C4000020036A70B5846805460E460BB99A
:10515000FFF7B0FF636EDB0705D4A389980502D47F
:10516000A06D00F02AFAA389190702D52369002B44
:1051700035D12146284600F019F980B34FF0FF35AC
:10518000636EDA0705D4A3899B0502D4A06D00F0F5
:1051900015FA284670BD002B04DAA2699A4217DC82
:1051A0000A2915D023685A1C22601970A36816F8C2
:1051B000011F013BA3600029EDD1002B11DA22462B
:1051C0000A21284600F0B3F80130D7D00A25D7E7E6
:1051D0002246284600F0ABF80130E7D1CEE7013E89
:1051E000E4E723685A1C22600A221A70EEE70000E6
:1051F000024B01461868FFF7A5BF00BFC40000209E
:105200000CB430B5174B0C1E1D689DB008DA8B230B
:105210002B604FF0FF301DB0BDE8304002B070474A
:105220004FF40273ADF8143014BF04F1FF3323467A
:10523000049307934FF6FF7302900690ADF8163073
:10524000209A21AB02A92846019300F07DFA431C65
:10525000BCBF8B232B60002CDDD0029B00221A7078
:10526000D9E700BFC40000200EB400B59CB01DAB50
:10527000029006906FF00041094807910491094996
:1052800053F8042B05910068019302A900F05CFA21
:10529000029B00221A701CB05DF804EB03B070474B
:1052A000C40000200802FFFF10B50C46B1F90E1033
:1052B00000F02AF90028ABBF636DA3891B1823F403
:1052C0008053ACBF6365A38110BD2DE9F0411F463B
:1052D0008B89DB0505460C46164605D5B1F90E103F
:1052E0000223002200F0FEF8A389B4F90E1023F483
:1052F0008053A38132463B462846BDE8F04100F08A
:1053000025B910B50C46B1F90E1000F0EBF8431CAE
:10531000A38915BF606523F4805343F48053A381B0
:1053200018BFA38110BDB1F90E1000F0CBB8F8B5CD
:105330000E461446054618B1036A0BB9FFF7BAFECC
:10534000A369A360A3891A0701D5236943B921463C
:10535000284600F02BF818B14FF0FF373846F8BD5B
:1053600023682269981A6369F6B28342374605DCDE
:105370002146284600F036FE0028EDD1A368013B07
:10538000A36023685A1C22601E706269431C9A4203
:1053900004D0A389DB07E1D50A2EDFD121462846B8
:1053A00000F020FE0028D9D0D6E7000038B5294B00
:1053B000054618680C4618B1036A0BB9FFF77AFE68
:1053C000B4F90C30190722D4DA0607D409222A606E
:1053D00043F04003A3814FF0FF3033E0580712D56C
:1053E000616B41B104F14403994202D0284600F0B8
:1053F000FDF800236363A38923F02403A381002322
:10540000636023692360A38943F00803A3812369B0
:105410004BB9A38903F42073B3F5007F03D0214671
:10542000284600F02DFEB4F90C3013F001020AD02A
:105430000022A26062695242A261226942B913F05D
:105440008000C5D138BD990758BF6269A260F4E7F2
:105450000020F7E7C4000020884210B501EB0204E9
:1054600002D98442234607D8431EA14208D011F82E
:10547000012B03F8012FF8E7024401468A4200D1CC
:1054800010BD13F8014D02F8014DF7E70244034641
:10549000934200D1704703F8011BF9E710B50139B9
:1054A000034632B111F8014F03F8014B013A002CC9
:1054B000F7D11A440021934200D110BD03F8011B1B
:1054C000F9E7000038B5064D0023044608462B6076
:1054D000FEF7DAFF431C02D12B6803B1236038BD0D
:1054E0008406002038B5074D0446084611460022C0
:1054F0002A601A46FEF7D2FF431C02D12B6803B183
:10550000236038BD8406002038B5074D04460846A0
:10551000114600222A601A46FEF7C2FF431C02D140
:105520002B6803B1236038BD8406002038B5064DD2
:105530000023044608462B60FEF788FF431C02D177
:105540002B6803B1236038BD8406002038B5074DB1
:1055500004460846114600222A601A46FFF724FA3C
:10556000431C02D12B6803B1236038BD84060020A0
:1055700070B50D4D0D4C641BA4100026A64209D138
:105580000B4D0C4C00F088FF641BA4100026A642B3
:1055900005D170BD55F8043B98470136EEE755F844
:1055A000043B98470136F2E79072000890720008B9
:1055B00090720008A8720008704770477047034651
:1055C00011F8012B03F8012B002AF9D170470A4486
:1055D000914200F1FF3300D1704710B511F8014B33
:1055E00003F8014F9142F9D110BD000038B50546CE
:1055F000002941D051F8043C0C1F002BB8BFE4181F
:10560000FFF78AFC1D4A136833B9636014602846AB
:10561000BDE83840FFF786BCA34208D920682118AE
:105620008B4201BF19685B6809182160EDE71A46D3
:105630005B680BB1A342FAD911685018A0420BD194
:1056400020680144501883421160E0D118685B68FB
:10565000536008441060DAE702D90C232B60D6E7C8
:10566000206821188B4204BF19685B68636004BF1F
:10567000091821605460CAE738BD00BF4405002006
:1056800051F8043C181F002BBCBF0B58C0187047C2
:105690002DE9F0478E681F46BE420B6882460C46D5
:1056A00090462DD8B1F90C2012F4906F26D0656980
:1056B000096905EB4505A3EB010905EBD5757B1CD5
:1056C0004B446D109D4238BF1D46530527D52946D2
:1056D000FFF7A2FB064660B321694A46FFF777FF52
:1056E000A38923F4906343F08003A381266165615D
:1056F0004E44A5EB09052660A5603E46BE4200D992
:105700003E46206832464146FFF7A6FEA3689B1B33
:10571000A3602368334423600020BDE8F0872A4655
:10572000FFF70EFC06460028E0D121695046FFF73E
:105730005DFF0C23CAF80030A38943F04003A38126
:105740004FF0FF30E9E700002DE9F04F98468B89D4
:105750001B069DB007460D46144610D50B6973B95C
:105760004021FFF759FB2860286130B90C233B60CA
:105770004FF0FF301DB0BDE8F08F40236B61002378
:10578000099320238DF82930CDF80C803023DFF8E1
:105790009C818DF82A304FF0010923469A4613F870
:1057A000012B0AB1252AF9D1BAEB040B0BD05B46C9
:1057B000224629463846FFF76BFF013000F0A780EC
:1057C000099A5A4409929AF80030002B00F09F8001
:1057D00000234FF0FF32CDE905230AF1010A0493BB
:1057E00007938DF853301A935446052214F8011B81
:1057F0004E48FAF7D5FC049AD8B9D00644BF202306
:105800008DF85330110744BF2B238DF853309AF88D
:1058100000302A2B15D0079A544600204FF00A0C6E
:10582000214611F8013B303B092B4BD9B0B107920F
:1058300014E0A0EB080309FA03F313430493A24610
:10584000D2E7039B191D1B680391002BBBBF5B4272
:1058500042F0020207930793B8BF049223782E2BDD
:105860000AD163782A2B32D1039B1A1D1B6803923D
:1058700043EAE37302340593DFF8C0A021780322E2
:105880005046FAF78DFC38B1049BA0EB0A00402289
:10589000824013430134049314F8011B24488DF80B
:1058A00028100622FAF77CFC002836D0214B1BBBBF
:1058B000039B073323F0070308330393099B334407
:1058C00009936AE70CFB02320C460120A8E700238B
:1058D0000134059319464FF00A0C204610F8012BAD
:1058E000303A092A03D9002BC6D00591C4E70CFB36
:1058F000012104460123F0E703AB00932A460E4B37
:1059000004A93846AFF30080421C0646D6D1AB89C5
:105910005B063FF52DAF09982CE703AB00932A46B1
:10592000054B04A9384600F0BBF9EDE70A69000809
:105930001469000800000000915600081069000872
:105940009368013B002B10B4936008DA9469A3427A
:1059500001DB0A2903D15DF8044BFFF7E8BC1368AB
:10596000581C1060197008465DF8044B7047F8B574
:1059700006460F461446D518AC4201D1002007E078
:1059800014F8011B3A463046FFF7DAFF431CF3D107
:10599000F8BD00002DE9F04F0D469DB01446984625
:1059A000064618B1036A0BB9FFF784FB6B6ED90783
:1059B00005D4AB899A0502D4A86DFFF7FEFDAB892B
:1059C0001B0701D52B699BB929463046FFF7EEFC32
:1059D00070B16B6EDC0704D54FF0FF301DB0BDE831
:1059E000F08FAB899805F7D4A86DFFF7E7FDF3E7D3
:1059F0000023099320238DF82930CDF80C80302323
:105A0000DFF8AC818DF82A304FF0010923469A4621
:105A100013F8012B0AB1252AF9D1BAEB040B0BD0EC
:105A20005B46224629463046FFF7A1FF013000F0D1
:105A3000A780099A5A4409929AF80030002B00F086
:105A40009F8000234FF0FF32CDE905230AF1010AC0
:105A5000049307938DF853301A935446052214F893
:105A6000011B5348FAF79CFB049AD8B9D10644BFEE
:105A700020238DF85330130744BF2B238DF8533068
:105A80009AF800302A2B15D0079A544600204FF080
:105A90000A0C214611F8013B303B092B4BD9B0B120
:105AA000079214E0A0EB080309FA03F313430493ED
:105AB000A246D2E7039B191D1B680391002BBBBFB5
:105AC0005B4242F0020207930793B8BF0492237827
:105AD0002E2B0AD163782A2B32D1039B1A1D1B6807
