:020000040800F2
:10000000008001205D380008AD380008AD380008D8
:10001000AD380008AD380008AD3800080000000019
:10002000000000000000000000000000AD380008E3
:10003000AD38000800000000AD380008BB250008FE
:10004000AD380008AD380008AD380008AD380008FC
:10005000AD380008AD380008B1260008B726000802
:10006000BD260008C3260008C9260008AD380008D0
:10007000AD380008AD380008AD380008AD380008CC
:10008000AD380008AD380008AD38000800000000A9
:10009000000000000000000000000000CF26000863
:1000A000AD23000825230008C123000849230008C8
:1000B0005D2300087123000885230008AD3800087F
:1000C000AD380008AD380008AD380008AD3800087C
:1000D000AD380008D5300008ED3000080000000001
:1000E000E5260008AD380008AD3800080000000023
:1000F000000000000000000000000000AD38000813
:1001000000000000AD38000899230008AD38000851
:1001100000000000000000000000000000000000DF
:10012000AD380008AD380008AD380008AD3800081B
:10013000AD380008000000000000000000000000D2
:10014000000000000000000000000000AD380008C2
:10015000AD380008AD380008AD3800080931000896
:10016000AD380008AD3800080000000000000000B5
:10017000000000000000000000000000000000007F
:1001800000000000AD380008000000000000000082
:04019000AD3800087E
:10019400034613F8012B002AFBD1181A01387047C3
:1001A40053B94AB9002908BF00281CBF4FF0FF31DA
:1001B4004FF0FF3000F00CB8ADF1080C6DE904CE3F
:1001C40003F0C4FDDDF804E0DDE9022304B0704768
:1001D400704700BF10B5054C237833B9044B13B1F5
:1001E4000448AFF300800123237010BD8400002075
:1001F400000000001440000808B5034B1BB103497C
:100204000348AFF3008008BD000000008800002010
:100214001440000800230022036042600372037448
:100224007047000010B50121224C1F2003F03EFB53
:1002340000211F2003F098FB06224FF4E1312046F1
:1002440003F06CF940F6B83003F0C8FB1A492046B5
:1002540003F0F2F91949204603F0D4F90A22C72120
:10026400204603F016FA1649204603F0CBF90A2279
:10027400C621204603F00DFA1249204603F0C2F9C4
:100284000A22C521204603F004FA0F49204603F050
:10029400B9F90A22C421204603F0FBF9204603F0F1
:1002A400B9F941F2883003F099FBBDE8104000F041
:1002B4004FB800BFDC0200202C4000083440000886
:1002C4003B400008424000084940000800F0A6B83E
:1002D400024B03481B221A2100F018BD8096980097
:1002E400A000002073B51649164C0646164803F0C4
:1002F400A3F9742002F0C1F824231D2205460093BB
:100304001E211C2300F05AF92846256000F0D8F974
:1003140020680E4D082100F01FFA2068012100F02A
:1003240005FA2068002100F00CFA2168284600F044
:10033400BBFEF1B2284602B0BDE8704000F0F6BC46
:1003440050400008C4000020DC020020A00000206F
:1003540038B5284C2848294DFFF75CFF204603F0A8
:1003640059F92749204603F04DF92649204603F060
:1003740063F97320FFF7B6FF01222846032100F03A
:10038400F5FD0221284600F008FE1F4A01212846F7
:1003940000F06CFD284600F0B1FD1C49204603F036
:1003A40031F90A22C721204603F073F9184920467F
:1003B40003F028F90A22C621204603F06AF91549F8
:1003C400204603F01FF90A22C521204603F061F9F3
:1003D4001149204603F016F9C4210A22204603F0ED
:1003E40058F9204603F016F9BDE8384001211F20D2
:1003F40003F0BABADC020020D8000020A0000020DC
:100404002C4000086340000800000020344000082D
:100414003B4000084240000849400008F8B54948FC
:1004240000F0F9FC002800F08B80464C464E474D06
:10043400204600F0F0FC002867D1454C454943486C
:10044400454E464D03F0DEF80A2221683F4803F08A
:1004540013F943493D4803F0D5F894ED010A3B48AC
:10046400022103F0A3F93E49384803F0CBF804F124
:100474000801364803F0C6F83949344803F0C2F895
:1004840004F11001314803F0D7F8364A23681168A3
:10049400002948D113600024334F34493B682B486A
:1004A40001333B6003F0AEF80A223968274803F0B1
:1004B400E3F82F49254803F0A5F80A2231682348B8
:1004C40003F0DAF82B49214803F09CF829681F4807
:1004D4000A2203F0D1F844B127491C4803F092F8EA
:1004E4001A480A22214603F0C7F8184803F092F884
:1004F40000211F2003F038FA0A2003F06FFABDE848
:10050400F84001211F2003F02FBA3146284603F09A
:1005140079F81A49284603F08FF80D49202220461D
:1005240000F084FC84E79942B4D25C1E641A136020
:1005340031682B682144A342316038BF2C60ABE79B
:10054400F8BD00BFA00000202C400008DC02002001
:10055400D80000209D400008CC000020C8000020E6
:10056400A7400008D4000020D0000020AA400008C2
:10057400B2400008BC400008C740000880400008A2
:100584000B490C4A10B58C6952F82440C465CC69F7
:10059400496952F82440046652F821204266064A0A
:1005A4004FF0FF31C0E91A120122A0F8702010BDEB
:1005B400C8440008F044000800093D0070B53D4DF2
:1005C400C5660125A0F87050D5B2232D049C25D80A
:1005D400394E56F8255002F4E0622A43C265CAB285
:1005E400232A2FD8344D55F8222001F4E061114319
:1005F4000166D9B2232939D803F4E0622E4B53F8AB
:1006040021301A434266E2B2232A3ED82A4951F8DD
:10061400222004F4E0631343836670BD02F0C00635
:10062400C02E0CD1C92D0AD8244D02F03F0602F485
:10063400E06255F82660204D55F82650CDE74FF07E
:10064400FF32CBE701F0C005C02D0CD1C92A0AD86E
:100654001A4A01F03F0501F4E06152F82550164AA8
:1006640052F82520C3E74FF0FF31C1E703F0C00281
:10067400C02A07D1C92905D8104A03F03F0152F80E
:100684002110B9E74FF0FF32BCE704F0C003C02BE0
:100694000CD1C92A0AD8094B04F03F0253F822109E
:1006A400054A04F4E06352F82120B4E74FF0FF3325
:1006B400B2E700BF00093D00F0440008C844000848
:1006C400002210B406495DF8044B80F85120012340
:1006D400C16680F8703080F8712000F0B3B800BFB4
:1006E40000093D0017B46B4683E80600C16E009A0A
:1006F4009142044605D1B0F87010BDF8042091422F
:100704000FD000989B88E066A4F8703094F870309D
:1007140094F87120E16E204603B05DF8044B00F0BC
:1007240091B803B05DF8044B7047704710B40B46A2
:1007340080F8701090F87120C16E5DF8044B00F0E1
:1007440081B810B40A4680F8711090F87030C16E08
:100754005DF8044B00F076B870B504460D4669B1F7
:1007640000F05CF8B0FBF5F194F8703094F8712067
:10077400E1662046BDE8704000F064B80049F3E744
:1007840000093D0007B5002A8DF807100DF1070197
:100794004FF001030CBF0A46002200F08DF99DF8CA
:1007A400070003B05DF804FB0148FFF7E9BE00BF92
:1007B400F800002030B591FAA1F391FAA1F1B3FA4F
:1007C40083F3C4685B000325B1FA81F105FA03F3EE
:1007D400490024EA03038A401A43C26030BD000082
:1007E4000A4A0346106883B1094A934201D101F0D1
:1007F40037B8084A934201D101F022B8064A93421D
:10080400FAD002F578429342F1D070472C000020D0
:100814000030014000380040003C0040074B10B558
:100824001C6840B10649406E02F0AAF818B1BDE850
:100834001040FFF7D5BF204610BD00BF2C0000209C
:100844008C4100082DE9F04F0E4685B015461F4631
:100854000446002800F0E9808C49006E02F090F80C
:100864008B498146E06D02F08BF88A498346606EBD
:1008740002F086F888498046A06E02F081F882462C
:10088400B9F1000F00F0D180BBF1000F00F0CD8072
:10089400B8F1000F00F0C9805946484602F087F8C5
:1008A40051468146404602F082F801468046484659
:1008B40002F07DF8A065B9F1000F00F0B680B8F140
:1008C400000F00F0B280002800F0AF80A26E20601C
:1008D400511C0CBF4FF400724FF480224FF482730A
:1008E400A2616360FFF77CFFB6EB500F6ED2B6EBEC
:1008F400900F6DD2B6EBD00F6CD2B6EB101F6BD24B
:10090400B6EB501F6AD2B6EB901F69D2B6EBD01F7C
:100914002CBF30233823E361002D63D0022D63D034
:10092400013D18BF01256D000123B7FA87F7C4E91B
:1009340004537F09072300269F40E3625349206E36
:10094400A660C4E90876A662E66002F001F85049A0
:10095400E06D01F0FDFF606E4E4901F0F9FF23697F
:10096400B342636EC3F3031114BF012202220529AB
:1009740098BF4A4803F00F0398BF50F82100484934
:1009840088BF3046022A51F8231018BF0122FFF70E
:1009940011FF4149A06E01F0DBFF2368414A9342F5
:1009A40024D100230093404B5A6C42F480525A6481
:1009B4005A6C02F480520092009A5A6A42F48052AD
:1009C4005A625A6A22F480525A6226E00023A2E74D
:1009D4000823A0E710239EE718239CE720239AE727
:1009E400282398E72B46A0E700239EE72F4A93424B
:1009F4001ED1002301932C4B1A6C42F480421A64DA
:100A04001A6C02F480420192019A1A6A42F48042FA
:100A14001A621A6A22F480421A62204600F031FFF8
:100A24002268136843F04003136005B0BDE8F08FFB
:100A34001F4A934213D1002302931B4B1A6C42F4B6
:100A440000421A641A6C02F400420292029A1A6A70
:100A540042F400421A621A6A22F40042DCE7154AA0
:100A64009342DAD1002303930F4B5A6C42F40052A1
:100A74005A645A6C02F400520392039A5A6A42F47A
:100A840000525A625A6A22F400529DE7104200084A
:100A9400D44100088C410008384100080C000020B3
:100AA400E0400008003001400038024000380040B7
:100AB400003C0040003401402DE9F0410D4616464B
:100AC4001C4633B3076800F047FB8046BB689907B0
:100AD400FCD5D5B115F8013B3B73BB68DA07FCD5EF
:100AE4003B7B0EB106F8013B00F036FBA0EB08009F
:100AF400B0F57A7F04F1FF3409D2002CE6D1204608
:100B0400BB681B06FCD4BDE8F081FF23E4E70120A9
:100B1400F6E70220F7E7000010B50446407902F03A
:100B240023FF074B0749084A1B68B3FBF2F3226A09
:100B3400486853434A68121A9342FBDC10BD00BF55
:100B44002C000020001000E040420F000346007912
:100B54005B79834201D002F007BF704713B5836805
:100B640000930123ADF8043002AB13E906000446F8
:100B74000068FFF7B7FD0021204602B0BDE8104031
:100B8400FFF7CABF10B504460121FFF7C5FF20686F
:100B9400BDE81040FFF7C9BD70B504460E461546C2
:100BA400FFF7DCFF46F0200120680022FFF7EAFD92
:100BB4000022207329462068FFF7E4FD2046FFF752
:100BC400E1FF70BD38B504460D46FFF7C7FF29465F
:100BD40020680022FFF7D6FD00222073FF21206841
:100BE400FFF7D0FD05462046FFF7CCFF284638BD69
:100BF400F8B504460F4615461E46FFF7AFFF2068BA
:100C0400002247F02001FFF7BDFD2E442073B542BA
:100C140003D12046FFF7B6FFF8BD15F8011B206885
:100C24000022FFF7AFFDF2E738B504460D4663B185
:100C3400FFF794FF2068002245F02001FFF7A2FD92
:100C440020732046FFF79EFF38BDBDE83840FFF70C
:100C5400A3BFF8B5037E05460F461646B3B9447BD9
:100C6400A24228BF2646A41BE4B22846FFF776FF1B
:100C7400286800226121FFF785FD3E442873B742AE
:100C840009D184B92846FFF77DFFF8BD202A28BF83
:100C940020260024E9E728680022FF21FFF772FDDF
:100CA40007F8010BEBE728680022FF21013CFFF75E
:100CB40069FDE4B2E5E710B504460123FF22E22111
:100CC400FFF7B2FF207B10BD10B504460123FF22BD
:100CD400E121FFF7A9FF207B10BD10B5FF220446D8
:100CE40001231146FFF7A0FF207B10BD054B82684E
:100CF40003600023837348F6B8039A429CBF024BF7
:100D040083607047F80000208096980010B58360D7
:100D1400202343730023427183820122052301713E
:100D2400C37502760362FFF7E1FF10BD7D290A4611
:100D340028BF7D220521FFF72FBF202928BF2021AE
:100D4400012938BF012138B50546417311242146D4
:100D540001346A7B2846E4B2FFF71EFF172CF6D154
:100D640038BD0379FF2B04D04079FF3818BF012028
:100D740070470020704738B50446FFF7F2FF054678
:100D840090B120796379834206D0012102F08EFD6F
:100D94006079012102F08AFD00212046FFF7D6FE8A
:100DA40001212046FFF7B8FE284638BD08B5C27CAD
:100DB40012F0020112D142F00202C274FFF7ECFEFB
:100DC4000749084B084A1B684868B3FBF2F341F231
:100DD400883253434A68121A9342FBDC08BD00BFB1
:100DE400001000E02C00002040420F0038B50C46F3
:100DF40017210546FFF7E6FEC3070AD42378FF2B25
:100E040005D02846FFF769FFC0F342002070012097
:100E140038BD0020FCE707B5FF230DF107018DF86D
:100E24000730FFF7E3FF03B05DF804FB10B5044699
:100E3400FFF70FFF20464022BDE810400721FFF7CF
:100E4400ABBE8A1E12F0FF0238B5054608D002F088
:100E5400030422460321FFF79FFE0234EC7538BDDC
:100E64000321FFF799FE0224F8E7000070B5044659
:100E740016460D46F1B9C27D31460E3002F0C2FE6F
:100E8400012363751049E37D495D32462046FFF72F
:100E9400AFFE02212046FFF795FE0C4B5A5D01235D
:100EA400934040EA0302D2B220460221BDE87040DA
:100EB400FFF772BE052905D8034B012D595CE1D01B
:100EC4000123E4E770BD00BFD2400008D840000809
:100ED40038B50C4602210546FFF774FE064B1A5D31
:100EE4000123934020EA0302D2B202212846FFF7ED
:100EF40053FE04B96C7538BDD840000810B50446DB
:100F0400FFF754FFE27C42F00102E2740021204624
:100F1400FFF742FE702207212046FFF73DFE012124
:100F24002046FFF713FE617D41B1E37D04F10E021B
:100F340020460A21BDE81040FFF75ABE2046BDE80E
:100F44001040FFF7C5BF10B50446FFF707FE206841
:100F540000225021FFF716FC002220737321206821
:100F6400FFF710FC2046FFF70DFE10BD70B50D46CF
:100F7400062106461446FFF725FE032D28BF032548
:100F840000F0F80304EB450443EA04023046D2B20D
:100F9400BDE870400621FFF7FFBD70B50E4606217F
:100FA4000546FFF70FFE022E00F0D70414D0012EE1
:100FB4000BBF41225522082300231C43EA61284623
:100FC40022460621FFF7E8FD06212846FFF7FAFD31
:100FD400031B5842584170BD9B222023EDE738B5CE
:100FE4000446052002F0FAFC5F2204212046FFF7A4
:100FF400D3FD00212046FFF7D0FF1D212046FFF737
:10100400E1FD05462046FFF79EFF1D212046FFF720
:10101400D9FD2A1A53425341237548B1854202D15E
:101024002046FFF790FF00221D212046FFF7B4FD64
:1010340000252A462046A5751C21FFF7ADFD204654
:1010440025763F220121FFF7A7FD03222046022136
:10105400FFF7A2FD20462021FFF76FFE2046052161
:10106400FFF7EFFE20464C21FFF760FE70220721B8
:101074002046FFF791FD2046FFF71DFE2046FFF7AF
:1010840023FE0C2229462046FFF786FD29462046EA
:10109400FFF798FDE0742046FFF788FEE07CA0F19E
:1010A4000E035842584138BD10B501600446FFF79D
:1010B40062FE20B12046BDE81040FFF790BF10BD8E
:1010C4007047000038B50E4B1A784FF47A73B3FBAF
:1010D400F2F30C4A05461068B0FBF3F000F0A6F8F2
:1010E400044658B90F2D09D8024629464FF0FF305F
:1010F40000F04AF8044B20461D6038BD0120FCE78F
:10110400060000202C0000200800002008B50B4B2E
:101114001A6842F400721A601A6842F480621A6013
:101124001A6842F480721A60032000F01BF8002051
:10113400FFF7C8FFFFF7C4FF002008BD003C0240D2
:10114400034A044B11681B780B441360704700BFBB
:101154006C01002006000020014B1868704700BF96
:101164006C0100200749CA6822F4E06203021204F9
:1011740003F4E063120C134343F0BF6343F40033FE
:10118400CB60704700ED00E0164B30B5DC68C4F36B
:101194000224C4F10703251D042B28BF0423062DB4
:1011A4004FF0FF358CBF033C002405FA03F321EA1A
:1011B4000303A54022EA0502A340002843EA0203F0
:1011C400ACBF00F16040084A4FEA0313B8BF00F017
:1011D4000F00DBB2AABF00F56140135480F800335E
:1011E40030BD00BF00ED00E014ED00E0002807DB97
:1011F400044A4109012300F01F00834042F82130D2
:10120400704700BF00E100E000280CDB43090649F9
:1012140000F01F0020330122824041F82320BFF355
:101224004F8FBFF36F8F704700E100E00138B0F1DA
:10123400807F0BD24FF0E023054A5861F02182F8F9
:1012440023100020072298611A617047012070471B
:1012540000ED00E0002808DB4309044900F01F000A
:1012640001226033824041F82320704700E100E00E
:10127400704708B5FFF7FCFF08BD704710B504467A
:1012840050B1437903F0FF0213B90271FFF7F5FF80
:1012940001236371002010BD0120FCE770B50446F2
:1012A400866DFFF759FF94F83530022B054606D0BA
:1012B400802363650120002384F8343070BD2368E3
:1012C4001A6822F016021A605A6922F080025A61E2
:1012D400226C0AB9A26C1AB11A6822F008021A60C8
:1012E4001A6822F001021A602368186810F00100DD
:1012F40007D1E26D3F239340B360012384F8353076
:10130400D9E7FFF729FF401B0528EDD92023032047
:10131400636584F83500CEE790F83530022B03D0AE
:1013240080234365012070470268052380F8353027
:10133400136823F00103136000207047044A5169C5
:10134400014208B502D0506101F09AF908BD00BF0E
:10135400003C01402DE9F341044640B30368DE0735
:1013640010D423689D075BD42368190700F19D807E
:1013740023685A0700F1BD80A369002B40F0248143
:1013840000202CE08D4B9A6802F00C02042A07D04E
:101394009A6802F00C02082A0BD15B68590208D53E
:1013A400864B1B689A03DCD56368002BD9D10120D6
:1013B40015E06368814DB3F5803F13D12B6843F486
:1013C40080332B60FFF7C8FE7C4E054633689B03D1
:1013D400C7D4FFF7C1FE401B6428F7D9032002B02D
:1013E400BDE8F081B3F5A02F04D12B6843F480232A
:1013F4002B60E3E72A6822F480322A602A6822F408
:1014040080222A60002BDDD1FFF7A6FE06462B685A
:101414009F03A6D5FFF7A0FE801B6428F7D9DDE75C
:10142400664B9A6812F00C0F07D09A6802F00C020F
:10143400082A11D15B685D020ED4604A13689907CB
:1014440002D5E368012BB2D11368216923F0F803B4
:1014540043EAC103136087E7E268594BB2B1012242
:101464001A60FFF779FE554D06462B689B0707D592
:101474002B68226923F0F80343EAC2032B6073E765
:10148400FFF76AFE801B0228EFD9A7E71A60FFF76F
:1014940063FE4A4E054633689F077FF565AFFFF745
:1014A4005BFE401B0228F6D998E76269444B82B17F
:1014B4000122C3F8802EFFF74FFE404E0546736F9E
:1014C4009B073FF555AFFFF747FE401B0228F6D9AF
:1014D40084E7C3F8802EFFF73FFE384E0546736F4E
:1014E4009F077FF545AFFFF737FE401B0228F6D96B
:1014F40074E7324B1A6C12F0805228D101921A6CA4
:1015040042F080521A641B6C03F080530193019BD8
:1015140001272C4D2B68D8051BD5A368274D012B1B
:1015240027D12B6F43F001032B67FFF715FE234EE2
:10153400054641F28838336F9A0739D5002F3FF4B6
:101544001BAF1E4A136C23F08053136414E7002767
:10155400DFE72B6843F480732B60FFF7FDFD06463D
:101564002B68D905D9D4FFF7F7FD801B0228F7D9DA
:1015740034E7052B04D12B6F43F004032B67D0E72A
:101584002A6F22F001022A672A6F22F004022A67D6
:10159400002BCAD1FFF7E0FD41F2883806462B6FD5
:1015A4009B07CBD5FFF7D8FD801B4045F7D915E73E
:1015B400FFF7D2FD401B4045BDD90FE7003802407C
:1015C4000000474200700040374DAA6802F00C0248
:1015D400082A3ED0022B354B4FF000021A662BD15D
:1015E400FFF7BAFD06462B6899011FD4D4E90732E8
:1015F4001343626A43EA8213E26A43EA0263A26A19
:101604005208013A43EA02436B60284B264D0122FB
:101614001A66FFF7A1FD04462B689A013FF5B0AEA8
:10162400FFF79AFD001B0228F6D9D7E6FFF794FDD1
:10163400801B0228D7D9D1E6FFF78EFD04462B681C
:101644009B017FF59DAEFFF787FD001B0228F6D9AD
:10165400C4E6012B3FF4ABAE6B68E26903F480018E
:1016640091427FF4A4AE216A03F03F028A427FF4E0
:101674009EAE616A47F6C0721A40B2EB811F7FF4D6
:1016840096AEA26A520803F44031013AB1EB024F1C
:101694007FF48DAEE26A03F07063B3EB026F14BFA4
:1016A400012000209BE600BF0038024000004742B2
:1016B400134908B58B6803F00C03042B1CD0082BCA
:1016C4001CD14A684B68496813F4800314BF0D4861
:1016D4000D48C1F3881118BF002302F03F02A1FB9B
:1016E4000001FEF75DFD064B5B68C3F30143013364
:1016F4005B00B0FBF3F008BD0248FCE70248FAE7E0
:101704000038024040787D010024F4002DE9F041C6
:101714000D46044610B90120BDE8F081434B1A6818
:1017240002F007028A4228D321688F072DD4C80704
:1017340040D43E4B1A6802F00702AA4265D82268D8
:1017440051076BD4130707D5394A2169936823F4E9
:10175400604343EAC1039360FFF7AAFF344B354A61
:101764009B68C3F30313D35CD840334B1860334BEB
:101774001868FFF7A7FC0020CEE7CAB21A701B68EE
:1017840003F007038B42C6D1CEE7294B11F0040FB7
:101794001EBF9A6842F4E0529A600E0742BF9A68EC
:1017A40042F460429A609A68A06822F0F002024310
:1017B4009A60BCE762681E4B012A1CD11B6813F4B3
:1017C400003FA8D01A4EB36823F003031343B36059
:1017D400FFF7C2FC41F288380746B368626803F039
:1017E4000C03B3EB820FA4D0FFF7B6FCC01B40453B
:1017F400F3D9032090E7911E01291B6802D813F046
:10180400007FDEE713F0020FDBE7EAB21A701B6811
:1018140003F00703AB427FF47EAF90E70449E0682E
:101824008B6823F4E05303438B608BE7003C024056
:1018340000380240284100082C0000200800002045
:10184400044B054A9B68C3F38223D35C034A1068A4
:10185400D840704700380240204100082C00002086
:10186400044B054A9B68C3F34233D35C034A1068B4
:10187400D840704700380240204100082C00002066
:10188400704710B50446002855D0436A002B4ED14A
:101894004268B2F5827F00D0C3610023A36294F84A
:1018A400513003F0FF0223B984F850202046FFF79B
:1018B400E7FF2168A068A269022384F851300B680D
:1018C40023F040030B60636800F4044003F4827364
:1018D4000343E06800F400600343206900F0020061
:1018E4000343606900F00100034302F40070034302
:1018F400E06900F038000343206A00F080000343ED
:10190400A06A00F4005003430B60636A120C03F0F6
:10191400100302F004021A434A60CB6923F4006303
:10192400CB6100200123606584F8513010BD002391
:10193400C0E90433B1E70120F8E770477047036852
:1019440070B5DD681E69B10704460DD5AA070BD52D
:101954006FF002021A61012202779B699B0769D02A
:1019640000F089FD00232377710710D56A070ED58F
:1019740023686FF004021A61022222779B6913F430
:10198400407F20465CD000F076FD002323773307A8
:101994000FD528070DD523686FF008021A610422B9
:1019A4002277DB699907204650D000F064FD0023BC
:1019B4002377F20610D5EB060ED523686FF01002DC
:1019C4001A6108222277DB6913F4407F204643D052
:1019D40000F051FD00232377F00708D5E90706D569
:1019E40023686FF001021A61204600F021FD3206DF
:1019F40008D52B0606D523686FF080021A612046AD
:101A040000F0A3F8700608D5690606D523686FF0C0
:101A140040021A612046FFF791FFB20622D5AB06B9
:101A240020D523686FF0200220461A61BDE870407B
:101A340000F08AB800F01DFD2046FFF77EFF91E715
:101A440000F017FD2046FFF778FF9EE700F011FD38
:101A54002046FFF772FFAAE700F00BFD2046FFF7D0
:101A64006CFFB7E770BD00001F4A036890420ED0B8
:101A7400B0F1804F0BD0A2F57C42904207D002F522
:101A84008062904203D002F58062904208D14A6895
:101A940023F070031343CA6823F4407313430AE02A
:101AA400124A9042F7D002F580629042F3D002F5D8
:101AB40080629042EFD04A6923F0800313430360AD
:101AC4008B68C3620B688362074B984204BF0B693F
:101AD4000363012343610369DB0742BF036923F006
:101AE40001030361704700BF000001400040014052
:101AF40010B5044630B390F83D3003F0FF021BB933
:101B040080F83C2001F0ECF80223206884F83D3092
:101B1400211DFFF7A9FF012384F84630002084F833
:101B24003E3084F83F3084F8403084F8413084F803
:101B3400423084F8433084F8443084F8453084F8E3
:101B44003D3010BD0120FCE770477047026802F188
:101B54000C0353E8003F23F490730C3242E8003145
:101B640002680029F2D102F1140353E8003F23F084
:101B7400010302F1140C4CE800310029F3D1036B8A
:101B8400012B0BD102F10C0353E8003F23F01003A7
:101B940002F10C0C4CE800310029F3D1202380F829
:101BA40042300023036370470268C16838B5136983
:101BB40023F440530B431361054683680069D168DD
:101BC400034368690343E86921F4164121F00C01D9
:101BD40003430B43D3605369A96923F440730B4354
:101BE40053611F4B9A4203D003F580639A4224D178
:101BF400FFF736FEEA691921B2F5004FD5E9004333
:101C0400A0FB01011CD1DA184FF0000545EB0503D8
:101C1400FEF7C6FA6422B0FBF2F102FB1103DB000B
:101C24003233B3FBF2F303F007025B0002EB011261
:101C340003F4F8731344A36038BDFFF701FED9E73A
:101C44009A009B0FFEF7ACFA6422B0FBF2F102FBA0
:101C540011031B013233B3FBF2F303EB0113EAE785
:101C640000100140704710B5044648B390F8413065
:101C740003F0FF021BB980F84020FFF7F3FF22684E
:101C8400242384F84130D36823F40053D3602046DE
:101C9400FFF78AFF23681A6922F490421A615A698D
:101CA40022F02A025A61DA6842F40052DA60002013
:101CB4002023606484F8413084F84230606310BDAE
:101CC4000120FCE710B5044668B390F8413003F0F6
:101CD400FF021BB980F84020FFF7C4FF22682423C9
:101CE40084F84130D36823F40053D3602046FFF7CF
:101CF4005BFF23681A6922F490421A615A6922F040
:101D040022025A615A6942F008025A61DA6842F4BE
:101D14000052DA6000202023606484F8413084F8A3
:101D24004230606310BD0120FCE790F84130202B65
:101D340010D189B182B1C284016282840168002316
:101D44002122436480F84120CA6842F08002CA60BC
:101D540018467047022070470120704708B5806B11
:101D64000023C385C38401F075F908BD704790F85A
:101D74004230222B07B542D181680268836AB1F5EB
:101D8400805F3FD1016900293FD15268C2F3080244
:101D940023F8022B8362C38D013B9BB2C385002BC6
:101DA4002DD10268D16821F02001D160D16821F4DD
:101DB4008071D160516921F001015161202280F8C4
:101DC40042204363026B012A026828D1036302F1B3
:101DD4000C0353E8003F23F0100302F10C0C4CE811
:101DE40000310029F3D11368DB0605D5019113688E
:101DF400019353680193019B818DFFF7B7FF03B0F3
:101E04005DF804FB39B9016929B95268D2B21A7074
:101E1400836A0133BEE7526802F07F02F7E701F0FC
:101E240013F9ECE703681A6873B51607D9685D6996
:101E340004460AD1960640F18B808D0640F18880D5
:101E440002B0BDE87040FFF792BF15F001054BD01A
:101E540012F0010F02F0040363D11BB1636C43F071
:101E640002036364930749D5636C43F0040363641A
:101E740012F0080F03D0636C43F008036364636CCF
:101E8400002B5FD0920604D58B0602D52046FFF7BF
:101E94006EFF26687369626C03F0400302F0080267
:101EA40053EA020520464FD0FFF750FE73695E06E1
:101EB40045D5226802F1140353E8003F23F04003A0
:101EC400143242E800310029F3D1E06B002836D007
:101ED4008A4B0365FFF720FA002833D0E06B036DCB
:101EE40002B0BDE87040184711F4907F30D012F072
:101EF400010F02F0040307D190070DD41007BED5DB
:101F040001F020032B43B5E7CE050FD4002BF3D10A
:101F14009607F3D5002DA7D11507B0D511F0200FE2
:101F2400A8E7C80502D4002B98D1F1E7636C5607E3
:101F340043F001036364EBD5002DDDD08EE720462A
:101F440001F088F802B070BD01F084F86564F9E727
:101F5400206B012840F09580D50640F19280C80698
:101F640040F18F80002201921A6801925A6801920E
:101F7400019A5A6952064ED5E16B0A68526892B2C8
:101F8400002ADFD0A08D9042DCD9E285CA69B2F57F
:101F9400807F36D003F10C0252E8002F22F48072C5
:101FA40003F10C0040E800210029F3D103F11402ED
:101FB40052E8002F22F0010203F1140040E800214E
:101FC4000029F3D103F1140252E8002F22F0400259
:101FD40003F1140040E800210029F3D1202284F801
:101FE4004220216303F10C0252E8002F22F0100278
:101FF40003F10C0040E800210029F3D1E06BFFF766
:102004004DF902236363E38DA18DC91A89B2204679
:10201400FFF7ACFE96E7E28DE08DA18D80B292B21F
:1020240000288FD0891A89B200298BD003F10C02C1
:1020340052E8002F22F4907203F10C0545E80020C9
:102044000028F3D103F1140252E8002F22F0010218
:1020540003F1140545E800200028F3D1202284F878
:102064004220206303F10C0252E8002F22F01002F8
:1020740003F10C0545E800200028F3D10223636333
:10208400C5E7160628D50D0626D594F84120212A41
:102094007FF458AFA168226AB1F5805F17D1216936
:1020A400A9B932F8021BC1F3080159602262E28C1B
:1020B400013A92B2E284002A7FF444AFDA6822F053
:1020C4008002DA60DA6842F04002DA603AE7511CD2
:1020D400216212785A60EAE750067FF533AF4A0668
:1020E4007FF530AFDA6822F04002DA60202384F80A
:1020F4004130204600F0ABFF24E700BF611D00081B
:1021040090F84030012B11D00268242380F841302C
:10211400D36823F00C0343F00803D360202380F832
:102124004130002380F84030184670470220704741
:1021340090F84030012B11D00268242380F84130FC
:10214400D36823F00C0343F00403D360202380F806
:102154004130002380F84030184670470220704711
:1021640090F8412090F8420010437047C285002344
:10217400828502694364222380F8423081620368C5
:102184001AB1DA6842F48072DA605A6942F00102E4
:102194005A61DA6842F02002DA600020704770B4B5
:1021A40090F84260202E06D141B13AB10024046374
:1021B40070BCFFF7DBBF022070BC70470120FBE757
:1021C400836810B504462BB10322014698470023C7
:1021D400C4E9023310BD836810B5044613B1032269
:1021E40001469847204610BD184A904203461ED027
:1021F400B0F1804F1DD0A2F57C4290421BD002F575
:102204008062904219D002F58062904217D002F5A4
:102214009A32904215D002F58062904213D002F5B2
:1022240080624FF6FF70934208BF0720704700207A
:102234007047012070470220704703207047042034
:102244007047052070470620704700BF000001401A
:10225400014670B5044651F8100FFFF7C5FF054657
:10226400084600F06DFC094A002342F8253004F1C9
:102274006006E36004F1B005B54204D0103D284681
:10228400FFF7A9FFF8E7204670BD00BF70010020EA
:10229400F8B504460846FFF7A7FF4FF6FF739842C8
:1022A40000D1FEE7236903B1FEE71C4D84F82C300E
:1022B40004F10C0245F8202004F110060E22C4E9B2
:1022C4000C33C4E90E33C4E91033C4E91623216185
:1022D400A36484F84C3084F84D30E460304600F058
:1022E4009BFB04F1600504F1B00728461035FFF7A5
:1022F40067FFBD42F9D100234FF6FF72C4E90033F2
:10230400C4E90632C4E90833A36063618023A3628D
:102314003046BDE8F840FFF7EBBB00BF700100207A
:1023240010B5074C206810B10430FFF708FBA06912
:1023340020B1BDE810400430FFF701BB10BD00BF61
:1023440070010020034B186810B10430FFF7F7BA8E
:10235400704700BF70010020034B586810B104306F
:10236400FFF7EDBA704700BF70010020034B986877
:1023740010B10430FFF7E3BA704700BF70010020CA
:10238400034BD86810B10430FFF7D9BA704700BFC7
:1023940070010020034B186910B10430FFF7CFBA65
:1023A400704700BF70010020034B586910B104301E
:1023B400FFF7C5BA704700BF70010020034BD8690E
:1023C40010B10430FFF7BBBA704700BF70010020A2
:1023D4000022C0E90022C0E902227047F8B5044691
:1023E4000E4600F1600500F1B00728461035FFF7EE
:1023F400EFFFBD42F9D10023204623613146FFF7A8
:1024040047FF2046F8BD826810B50AB901F0FCFD0B
:10241400BDE81040C368184708B500B9FEE700F0EE
:10242400F9FA0068836E13B16030FFF7ECFF08BD62
:10243400FFF7F2BF10B500B9FEE7037F013B072B9E
:1024440010D8DFE803F004140F100F0F0F1201244B
:1024540000F0E0FA0068063400EB041083680BB166
:10246400FFF7D1FF10BD0324F2E70424F0E70224B0
:10247400EEE7FFF7DFBFFFF7DDBF01F0CFBA01F0F2
:10248400D5BA000086B00023052853D8DFE800F051
:1024940003111E2B38450093274B28481A6B42F032
:1024A40001021A631B6B03F001030093009B06B047
:1024B40070470193204B22481A6B42F002021A63C0
:1024C4001B6B03F002030193019BF0E702931A4B89
:1024D4001C481A6B42F004021A631B6B03F00403DA
:1024E4000293029BE3E70393134B17481A6B42F0E2
:1024F40008021A631B6B03F008030393039BD6E7DC
:1025040004930D4B11481A6B42F010021A631B6BB3
:1025140003F010030493049BC9E70593064B0C488E
:102524001A6B42F080021A631B6B03F0800305935D
:10253400059BBCE70020BAE70038024000000240D7
:102544000004024000080240000C02400010024057
:10255400001C0240F8B51449144E074600F010FA66
:10256400FFF742FE56F82030044673B9B020FFF757
:1025740084FF0D490546384600F002FA0146284614
:10258400FFF72CFF56F824301D6056F824301C68E1
:1025940044B12046FFF75CFE2046B021BDE8F84078
:1025A400FFF76DBFF8BD00BF0C43000870010020A9
:1025B400FEF7D2BD704708B5FEF7C2FDFEF759FE1F
:1025C400FFF7F8FF08BD704784B0114B0022019259
:1025D400196C41F080511964196C01F0805101911A
:1025E40001990292596C41F480415964596C01F487
:1025F40080410291029903921A6B42F480521A6349
:102604001B6B03F480530393039B04B0704700BF18
:10261400003802400C4BD3F8FC20D2015EBFD3F843
:10262400FC2042F08072C3F8FC20084B00225A6060
:102634001A6842F001021A6000BF00BF00BF586868
:10264400B0FA80F04009704700ED00E0001000E0AF
:1026540008B5FFF7B9FFFFF7DDFFFEF757FDFFF7FA
:10266400B2FF00F085FDBDE808400148FEF706BE54
:10267400240000200023C0E90033C0E9023370477E
:102684000023012803F101020AD11422DBB25343CF
:10269400054A181D1044816829B11A441369184762
:1026A40040081346EDE77047900100200120FEF733
:1026B40045BE0220FEF742BE0420FEF73FBE0820BE
:1026C400FEF73CBE1020FEF739BE38B505242025A0
:1026D400A8B2FEF733FE013C4FEA4505F8D138BDF8
:1026E40038B506244FF48065A8B2FEF727FE013CF6
:1026F4004FEA4505F8D138BD344A104608B50623DB
:1027040000F8043BFFF7B6FF072302F11800137526
:10271400FFF7B0FF082302F12C0082F82830FFF7FE
:10272400A9FF092302F1400082F83C30FFF7A2FF21
:102734000A2302F1540082F850301721FFF79AFF60
:1027440002F1680082F86410FFF794FF02F17C0044
:1027540082F87810FFF78EFF02F1900082F88C1057
:10276400FFF788FF02F1A40082F8A010FFF782FFB0
:1027740002F1B80082F8B4102821FFF77BFF02F1C0
:10278400CC0082F8C810FFF775FF02F1E00082F870
:10279400DC10FFF76FFF02F1F40082F8F010FFF78E
:1027A40069FF02F5847082F80411FFF763FF02F5F4
:1027B4008E7082F81811FFF75DFFBDE8084002F53E
:1027C400987082F82C11FFF755BF00BF90010020CC
:1027D40038B5054CA4F5A075143C201DFFF7FBFC8F
:1027E400AC42F9D138BD00BFD002002030B591FA17
:1027F400A1F391FAA1F1B3FA83F3C4685B00032552
:10280400B1FA81F105FA03F3490024EA03038A408B
:102814001A43C26030BD431C04D00C3151F80C3C47
:102824005A1C01D100207047834201F10C01F5D1FB
:1028340001207047F8B5471C06460D4600D1FEE757
:1028440000F00F02414BC0F3031053F82240FFF78E
:1028540019FE94FAA4F3B3FA83F3876803225B00A6
:1028640002FA03F394FAA4F2B2FA82F227EA030713
:102874005200032393403B4305F00701836003297F
:1028840003D8DFE801F05F032C61FEE7012394FA2B
:10289400A4F2B2FA82F206685200032707FA02F29F
:1028A40026EA020694FAA4F2B2FA82F252009340A3
:1028B400013933430129036005D843682A074CBF13
:1028C4002343A3434360C5F30112012A02D0022A21
:1028D40018BF00222146BDE8F840FFF787BFC5F3C3
:1028E40006227F2A01D10223D1E7360716D5230A0F
:1028F40093FAA3F6B6FA86F6476A93FAA3F3B600F8
:102904004FF00F0CB3FA83F30CFA06F69B0027EA98
:10291400060602FA03F333434362E4E794FAA4F3AA
:10292400B3FA83F3066A9B000F2707FA03F326EA38
:10293400030694FAA4F3B3FA83F39B009A40324358
:102944000262D0E70023A2E70323A0E7E0400008E7
:10295400431C06D17047834202D18968FFF76ABFDE
:102964000C310B685A1CF6D1FEE70B685A1C01D1D6
:1029740000207047834201D1486870470C31F4E766
:10298400431C01D0FFF7F1BF002070474B6813B917
:102994004FF0FF307047834201D1086870470C3113
:1029A400F4E708B1FFF7F2BF4FF0FF30704703467A
:1029B4008B42084604D01BB100290CBF18460020E6
:1029C400704700001049D1F8883043F47003C1F80F
:1029D40088300E4B1A6842F001021A6000229A6095
:1029E4001A6822F0847222F480321A60084A5A600B
:1029F4001A6822F480221A604FF43F02DA604FF022
:102A040000638B60704700BF00ED00E000380240B7
:102A140010300024043870470368414A934288B058
:102A24000DD1002300933F4B5A6C42F001025A64CB
:102A34005B6C03F001030093009B08B07047B3F193
:102A4400804F0CD100230193364B1A6C42F00102E3
:102A54001A641B6C03F001030193019BEDE7324AF6
:102A640093420CD1002302932E4B1A6C42F00202C3
:102A74001A641B6C03F002030293029BDDE72B4AEA
:102A840093420CD100230393264B1A6C42F00402A8
:102A94001A641B6C03F004030393039BCDE7244ADD
:102AA40093420CD1002304931E4B1A6C42F008028B
:102AB4001A641B6C03F008030493049BBDE71D4ACE
:102AC40093420CD100230593164B5A6C42F4803286
:102AD4005A645B6C03F480330593059BADE7164A97
:102AE40093420CD1002306930E4B5A6C42F40032ED
:102AF4005A645B6C03F400330693069B9DE70F4A0C
:102B040093429AD100230793064B5A6C42F48022D5
:102B14005A645B6C03F480230793079B8DE700BF23
:102B2400000001400038024000040040000800405A
:102B3400000C0040004001400044014000480140B6
:102B44000368244A934206D102F59C32536C23F065
:102B5400010353647047B3F1804F05D11E4A136CCF
:102B640023F00103136470471C4A934205D102F514
:102B74000D32136C23F00203F4E7194A934205D192
:102B840002F50C32136C23F00403EBE7154A93426D
:102B940005D102F50B32136C23F00803E2E7124A65
:102BA400934205D102F57842536C23F48033D0E785
:102BB4000E4A934205D102F57442536C23F4003358
:102BC400C7E70B4A9342C5D102F57042536C23F414
:102BD4008023BEE7000001400038024000040040AA
:102BE40000080040000C0040004001400044014047
:102BF40000480140431C21D0184B984221D00BD8E7
:102C0400A3F5006398421ED003F5806398421CD05C
:102C1400B0F1804F1BD0FEE7114B984219D008D871
:102C2400A3F58843984214D003F58043984212D008
:102C3400F1E70C4B9842EED11A2070476FF00D006B
:102C44007047322070471D2070471E2070471C209B
:102C54007047192070471820704700BF000C0040CF
:102C64000044014000480140431C21D0194B9842C4
:102C740021D010D8A3F5784398421ED007D8B0F1DC
:102C8400804F1CD0A3F5806398421AD0FEE7124B04
:102C9400984218D0FAE7114B984216D003F5806396
:102CA400984214D0A3F500639842EFD118207047DE
:102CB4006FF00D0070471B2070471E2070471C20CA
:102CC40070471D20704732207047192070471A2022
:102CD400704700BF00000140000C00400044014068
:102CE40038B5FFF799FE04460068FFF783FFD4E97F
:102CF4001212FEF749FA2068FFF77CFFFEF776FA16
:102D040022681046FFF7B0FF05461046FFF772FF32
:102D140085420BD02846D4E91212FEF735FA206812
:102D2400FFF7A2FFBDE83840FEF760BA38BD0000E7
:102D34002DE9F04F87B004468A46406D66499846AF
:102D4400109B01939146FFF71BFE64498346A06DD7
:102D5400FFF716FE62490646E06DFFF711FE614972
:102D64000546206EFFF70CFE0746BBF1000F00F08E
:102D7400AF80A26D013202D0002E00F0A980E26D76
:102D8400013202D0002D00F0A380226E013202D065
:102D9400002F00F09D8031465846FFF708FE294673
:102DA4002060FFF704FE39462060FFF700FE206034
:102DB400002800F08D804C4B98424ED103F594339B
:102DC4005A6A42F010025A625A6A22F010025A6297
:102DD400002203925A6C42F010025A645B6C03F0B6
:102DE40010030393039B2523A4F864303A49606DD0
:102DF400FFF7AEFD1EB13949A06DFFF7A9FD2DB156
:102E04003749E06DFFF7A4FD4FF480752FB13549C4
:102E1400206E45F40075FFF79BFD94F86520334B55
:102E240094F96400C4F80C90271D43F822702368B9
:102E3400C4E9013A019B0022C4E904380C23C4E923
:102E4400063522620121FEF79FF93846002E3AD159
:102E540007B0BDE8F04FFEF735BF254B984217D1B8
:102E640003F5FA331A6A42F400321A621A6A22F437
:102E740000321A62002204921A6C42F400321A647C
:102E84001B6C03F400330493049B4FF49373ABE77C
:102E9400184B9842AAD103F592335A6A42F02002A1
:102EA4005A625A6A22F020025A62002205925A6C2F
:102EB40042F020025A645B6C03F020030593059BE7
:102EC40040F2472390E707B0BDE8F04FFEF7CBBED2
:102ED40007B0BDE8F08F00BFD0420008944200085C
:102EE400704200084C42000800100140D00200204B
:102EF400004400400014014010B4019C20B101942E
:102F04005DF8044BFFF714BF5DF8044B70470000F5
:102F140008B5074B90F8652053F82200FFF720F915
:102F240000F02200A0F122035842584108BD00BF1E
:102F3400D002002008B5074B90F8652053F8220012
:102F4400FFF70EF900F02100A0F121035842584187
:102F540008BD00BFD002002070B50E46054610B96A
:102F64004FF0FF3070BDFFF7D3FF04460028F7D1C0
:102F74002946012211F8663F337095F86500034B2A
:102F840053F82000FFF70BF92046EBE7D0020020AE
:102F940038B50D460446B8B1FFF7BAFFA0B994F9A5
:102FA4006400E564FEF730F994F86500074B04F11A
:102FB400660153F820000122FFF7F1F894F9640048
:102FC400BDE83840FEF712B938BD00BFD00200207A
:102FD40038B515460446B8B1016590F96400FEF7AA
:102FE40013F9E36EB4F8761094F8650013FA81F1DE
:102FF400064BAAB253F82000FEF797FE94F964003A
:10300400BDE83840FEF7F2B838BD00BFD00200205A
:1030140048B1836D013306D190F86520024B53F813
:103024002200FFF76DB87047D002002048B1836DCD
:10303400013306D190F86520024B53F82200FFF7C4
:1030440077B87047D0020020836C04381847C36CEB
:103054000438184730B5044650F804391D6815F093
:10306400010585B012D0002200921A6800925B68B4
:103074000093009BFFF74CFF40BB012204F1620167
:10308400204605B0BDE83040FFF789B8196811F053
:10309400020106D001951A6801925B680193019BB5
:1030A400E8E71A6812F0040206D002911A68029244
:1030B4005B680293029BDDE719680907DAD503927E
:1030C4001A6803925B680393039BD3E705B030BD92
:1030D40008B52520FEF7BEF8024B1868BDE8084085
:1030E400FEF7A0BED002002008B52620FEF7B2F8F5
:1030F400034B586818B1BDE80840FEF793BE08BDFD
:10310400D002002008B54720FEF7A4F8024B9868C7
:10311400BDE80840FEF786BED00200200A490346F7
:10312400086810B50344EFF30882934205D9074BAE
:103134000C221A604FF0FF3010BD054A054C121BDB
:103144009342F4D20B60F7E7300000204C050020D6
:103154000080012000040000FEE70000024B16225C
:103164001A604FF0FF3070474C0500200120704773
:1031740010B594B0102200210AA800F005FD142215
:10318400002103A800F000FD204B002101911A6CDE
:1031940042F080521A641B6C1D4A03F08053019361
:1031A400019B0291136823F4404343F400431360EA
:1031B400136803F440430293029B01224FF48033CB
:1031C400CDE9082302244FF48003CDE90E431921ED
:1031D4004FF4A8730420CDE910130723CDE912039B
:1031E40008A8FEF7B7F800B1FEE70F23CDE90334D2
:1031F4004FF48053CDE906300590214603A8FEF72D
:1032040085FA00B1FEE714B010BD00BF00380240DB
:10321400007000407047B0F80831B0F80421981AE3
:1032240000F03F007047B0F80831B0F804219BB2B9
:1032340093421ABFD0F8FC30985C4FF0FF307047CF
:1032440090F80631B0F80A01C0B2834227BFC3F137
:103254003F03C018C01A00F1FF30704707B5036878
:103264008DF807105B6801220DF10701984703B040
:103274005DF804FB13B50DF107010446FFF76CFE7E
:1032840088B9B4F87430B4F87020013303F03F0304
:10329400934208D0B4F87420A16E9DF8070092B24E
:1032A4008854A4F8743002B010BD0000B0F8762041
:1032B400816F11FA82F202F03F0210B5A0F8762075
:1032C400B0F87610B0F8722089B28A421AD0B0F8F9
:1032D4007640B0F87610A4B24032121B544289B240
:1032E40004F03F0402F03F02C1F1400158BF6242C2
:1032F4008A4228BF0A4682670349FFF769FE4FF0F6
:10330400FF3010BD0020FCE7B132000803682DE94E
:10331400F0479B6804468846164698470123237461
:10332400D4F8EC30B4F8069101338246C9F140096F
:1033340004F1940708D194F810312BB1002384F8D8
:1033440010313846FFF764FE236820469B6898478F
:103354000028F9D035464D4523D8554521D8B4F831
:103364000621D4F800015319402B10442FD82A46C3
:10337400414600F047FCA946B4F806311D4405F067
:103384003F05A4F806513846FFF7D4FD30B9174974
:10339400C4F80C914A463846FFF71AFE3046BDE899
:1033A400F087D145236828BFD1464A4641465B6829
:1033B40020469847236820469B689847A5EB090553
:1033C400C844B4F806918246C9F14009C3E7C2F182
:1033D40040094A46414600F015FCD4F80001A5EB2B
:1033E400090208EB090100F00DFCC5E7B132000841
:1033F400037C70B504460D46A3B1FDF7ADFE064649
:10340400B4F80621B4F80A319BB29A420AD0002DCE
:10341400F8D0FDF7A1FE801B8542F1D8B4F80A313B
:10342400A4F8063170BDC0F8F030009BC0F8F43049
:10343400914208BF4FF0FF3100F11103C0E93A2176
:10344400C0F8FC3000F151020023A0F80831C0E9B3
:103454004023A0F80A317047F7B54FF47A73174642
:103464000022C0E901231C4B03604FF0FF33C0F876
:10347400EC301A4B1A4E04469C42706A0D4605D134
:10348400B36AC4F8EC30C4F8E8000AE01549FFF761
:1034940077FA854215D1B36AC4F8EC30736AC4F87C
:1034A400E830012F4FF0FF3308BFC4F8EC3000932D
:1034B4002046D4E93A214FF0FF33FFF7B4FF03B0BD
:1034C400F0BD09492846FFF76CFA0649C4F8EC0038
:1034D4002846FFF766FAD6E790450008DC0200208C
:1034E400F0440008D042000894420008D0F8EC30C0
:1034F400013310B504460FD1036800215B6A984775
:1035040094F8103143B9012384F8103104F1940084
:10351400BDE81040FFF78ABD10BD000002F00703AC
:10352400023BDBB2042B73B50546C0F8141180F8D6
:103534001121144602F0300002D930280ED1FEE7E2
:10354400154A3028D25C0CD101324FF4C063082AEA
:103554000ED0092AF3D14FF480520AE09306EED438
:10356400EDE714F020031CBF01324FF48063EEE753
:103574000022C4F3C00405F19406640330460094A9
:10358400FFF7BAFC2846FFF7B1FF0449304602B002
:10359400BDE87040FFF7FCBC8045000879320008A4
:1035A40010B50446FFF7A2FFB4F80821B4F80431BB
:1035B40092B29A421FBFD4F8FC20D05C013303F0CE
:1035C4003F0314BFA4F804314FF0FF3010BD0000D6
:1035D400024903480022FFF73FBF00BF001001402B
:1035E400DC02002070B505460C46084649B1FCF7DC
:1035F400CFFD2B680246214628465B68BDE8704033
:10360400184770BD08B5FFF7EDFF08BD03681B68D8
:103614001847000008B50249FFF7E4FF08BD00BFE2
:10362400B845000838B50546FFF7DCFF04462846D0
:10363400FFF7F0FF204438BDFFF7F4BF30B58BB07F
:103644000023012A0C468DF8243098BF0A2209A9C8
:103654002546B4FBF2F404FB125303F0FF03092BD9
:1036640094BF30333733DBB2AA4201F8013DEFD9BE
:10367400FFF7B8FF0BB030BD10B42AB902685DF88B
:10368400044B1268C9B210475DF8044BD2B2FFF77D
:10369400D5BF38B50546FFF7EFFF04462846FFF7C8
:1036A400B9FF204438BD000070B5B4EE400AF1EE15
:1036B40010FA2DED048B0646B0EE408A0D4607D76E
:1036C4003449FFF78FFF0446BDEC048B204670BDE0
:1036D4009FED317AF0EEC07AF4EE477AF1EE10FA0B
:1036E40001DD2E49EDE7DFED2E7AB4EEE70AF1EEC7
:1036F40010FA02DD2B493046E3E7DFED2B7AB4EE16
:10370400E70AF1EE10FAF5D4B5EEC00AF1EE10FABC
:1037140039D52D21FFF77AFFB1EE488A04460023FC
:10372400F6EE007AB2EE047ADAB295422DD838EE8B
:10373400278A0A22FCEEC88A304618EE901AFFF750
:103744007DFF0444002DBFD02E213046FFF75EFFDD
:10375400F8EE688A044438EE688AB2EE049A002DC2
:10376400B2D028EE098A0A22FCEEC88A304618EE46
:10377400901AFFF763FFF8EE688A013D38EE688A15
:103784000444EDB2EBE70024C9E7C7EE877A0133BE
:10379400CAE700BFBB450008FFFF7F7FBF450008A5
:1037A400FFFF7F4FC3450008FFFF7FCF08B5C9B2B5
:1037B400FFF77AFF08BD10B5044600F00DF9E0608C
:1037C400236820465B699847002808DA00F004F96A
:1037D400E368C01AA3689842F2D34FF0FF3010BDDB
:1037E400F8B507460D468E180C46B44201D1601B4D
:1037F400F8BD3846FFF7DFFF031EF8DB04F8013B92
:10380400F3E72DE9F0410746884616461D4673B195
:1038140000243846FFF7CFFF031E05DB434503D0E2
:1038240033550134A542F4D12046BDE8F0811C464D
:10383400FAE708B50320FDF795FCBDE8084000F061
:10384400E9B808B5AFF30080FCF7ECFCFCF73EFDEB
:1038540000F0D2F8FAE70000DFF834D0FFF7B2F84E
:103864000C480D490D4A002302E0D458C4500433D7
:10387400C4188C42F9D30A4A0A4C002301E01360AD
:103884000432A242FBD300F097F9FFF7DAFF704746
:10389400008001200000002084000020F045000882
:1038A4008400002054050020FEE70000C3B2232B4F
:1038B4002DE9F0410D462AD8274A52F8233000F466
:1038C400E0641C43621C44D0244EC4F3031704F088
:1038D4000F0856F8273023FA08F3DB0710D52049E0
:1038E4002046FEF798FF10B12046FEF733FE56F847
:1038F4002730012202FA08F223EA020346F82730AD
:10390400052D15D8DFE805F015211B1D1F2300F038
:10391400C002C02A1DD1C92B1BD8124B00F03F0294
:1039240000F4E06453F822200B4B53F82230C8E72C
:10393400FEE700212046BDE8F041FEF77BBF1021E1
:10394400F8E72021F6E70321F4E70121F2E7092152
:10395400F0E7BDE8F08100BFF0440008F403002064
:103964000C430008C8440008C3B2232B14D8164AD9
:1039740052F8233000F4E0601843C0F30313052B1E
:103984001DD8124A52F82330114A00F00F0052F8A1
:103994002020B1B19A61704700F0C002C02A0CD156
:1039A400C92B0AD80B4B00F03F0200F4E06053F837
:1039B4002220054B53F82230DEE74FF0FF3000237E
:1039C400E2E71204E6E700BFF04400080C00002020
:1039D400E0400008C8440008FEF7EABD38B50446D4
:1039E40048B1FEF7E5FD054600F016F8FEF7E0FDE8
:1039F400431BA342F8D338BD08B5044B2BB104488C
:103A0400FFF709FC08B1AFF3008008BD0000000017
:103A1400DC020020FEF71CBE70470000024B01468A
:103A2400186800F02DB800BF34000020024B014696
:103A3400186800F0F5B800BF3400002070B50F4ED0
:103A44000C463168054611B900F0A6F830602146ED
:103A5400284600F0A1F8431C03D14FF0FF34204660
:103A640070BDC41C24F00304A042F8D0211A2846D7
:103A740000F092F80130F2D1EFE700BF0C0400200F
:103A84002DE9F041CD1C25F0030508350C2D38BF78
:103A94000C25002D064601DBA94204D90C23336012
:103AA4000020BDE8F081314F00F062F83B681C460D
:103AB40044BB29463046FFF7C1FF431C044650D19E
:103AC4003C682146002941D1002C44D0236830466B
:103AD40004EB030800F060F880453CD121686D1ABE
:103AE40029463046FFF7AAFF013034D023682B441F
:103AF40023603B68002B36D05A68A24229D10022A9
:103B04005A600EE02268521B1DD40B2A16D9611983
:103B1400A342256018BF5960636808BF39606251C9
:103B24004B60304600F02AF804F10B00231D20F00E
:103B34000700C21AB5D01B1AA350B2E7A3426268A9
:103B4400DED13A60EDE723466468B1E70C46496884
:103B5400B8E71346CEE70C233360304600F00EF886
:103B64009EE70560DDE75B60FFDE00BF1004002018
:103B7400014800F045B800BF50050020014800F09E
:103B840040B800BF5005002002440346934200D1D0
:103B9400704703F8011BF9E738B5064D00230446C6
:103BA40008462B60FFF7BAFA431C02D12B6803B115
:103BB400236038BD4C05002070B50D4D0D4C641BC1
:103BC400A4100026A64209D10B4D0C4C00F020FA9B
:103BD400641BA4100026A64205D170BD55F8043B11
:103BE40098470136EEE755F8043B98470136F2E76B
:103BF400D0450008D0450008D0450008E845000835
:103C0400704770470A44914200F1FF3300D1704776
:103C140010B511F8014B03F8014F9142F9D110BDD1
:103C240038B50546002941D051F8043C0C1F002B3F
:103C3400B8BFE418FFF79CFF1D4A136833B96360EB
:103C440014602846BDE83840FFF798BFA34208D95E
:103C5400206821188B4201BF19685B68091821602C
:103C6400EDE71A465B680BB1A342FAD91168501804
:103C7400A0420BD120680144501883421160E0D166
:103C840018685B68536008441060DAE702D90C23B3
:103C94002B60D6E7206821188B4204BF19685B6843
:103CA400636004BF091821605460CAE738BD00BFCF
:103CB4001004002008B5062000F02CF80120FFF7BE
:103CC4004BFA1F2938B505460C4604D91623036060
:103CD4004FF0FF3038BDC26B12B152F821304BB9EE
:103CE400284600F031F8224601462846BDE838400F
:103CF40000F018B8012B0AD0591C03D11623036015
:103D04000120E7E7002142F82410204698470020CC
:103D1400E0E70000024B01461868FFF7D2BF00BF7E
:103D24003400002038B5074D0023044608461146E8
:103D34002B60FFF713FA431C02D12B6803B12360F5
:103D440038BD00BF4C050020FFF710BA2DE9F0473D
:103D5400089D0C46002B4ED194468C458646B2FAFB
:103D640082F262D94AB1C2F12003914020FA03F3EE
:103D74000CFA02FC194300FA02FE4FEA1C471FFA30
:103D84008CF6B1FBF7F44FEA1E4307FB141143EA28
:103D9400014304FB06F199420AD91CEB030304F125
:103DA400FF3080F01381994240F21081023C634459
:103DB400591A1FFA8EF3B1FBF7F007FB101143EA0F
:103DC400014300FB06F69E420AD91CEB030300F1F3
:103DD400FF3180F0FD809E4240F2FA806344023855
:103DE4009B1B40EA044000211DB1D3400022C5E9D9
:103DF4000032BDE8F0878B4205D90DB1C5E9000159
:103E040000210846F5E7B3FA83F1002946D1A3421D
:103E140002D39042C0F0F180861A64EB03030120C0
:103E2400002DE6D0C5E90063E3E7002A40F0918065
:103E3400A1EB0C044FEA1C481FFA8CF70121B4FBD8
:103E4400F8F64FEA1E4308FB164443EA044307FB13
:103E540006F0984208D91CEB030306F1FF3402D2A2
:103E6400984200F2CE8026461C1A1FFA8EF3B4FB49
:103E7400F8F008FB104443EA044300FB07F79F42B1
:103E840008D91CEB030300F1FF3402D29F4200F275
:103E9400B1802046DB1B40EA0640A5E7C1F12006BD
:103EA4008B4022FA06F71F4320FA06FC04FA01F3BA
:103EB40043EA0C03F44000FA01F8380C4FEA1349C2
:103EC400B4FBF0FE1FFA87FC00FB1E4449EA0444DD
:103ED4000EFB0CF9A14502FA01F20AD93C190EF1C4
:103EE400FF3A80F08580A14540F28280AEF1020E57
:103EF4003C44A4EB09041FFA83F9B4FBF0F300FB80
:103F0400134449EA044403FB0CFCA44507D93C19B7
:103F140003F1FF3068D2A44566D9023B3C4443EA2E
:103F24000E40A0FB0293A4EB0C049C42CE469C469C
:103F340052D34FD055B1B8EB0E0364EB0C0404FA22
:103F440006F6CB40CC401E43C5E900640021BDE821
:103F5400F087C2F1200320FA03F10CFA02FC24FAE0
:103F640003F394400C434FEA1C4800FA02FE1FFA84
:103F74008CF7B3FBF8F008FB1031230C43EA014340
:103F840000FB07F1994208D91CEB030300F1FF364B
:103F94002CD299422AD9023863445B1AA4B2B3FBE7
:103FA400F8F108FB113344EA034401FB07F3A3428D
:103FB40008D91CEB040401F1FF3613D2A34211D932
:103FC40002396444E41A41EA004138E70446EFE662
:103FD400084605E7C845ADD2B9EB020E63EB070C02
:103FE4000138A7E73146EDE7034698E73046D4E7C2
:103FF400D6467EE7634402384CE706462346084625
:104004000EE7023E63442FE708B5FFF753FE0000B6
:10401400F8B500BFF8BC08BC9E467047F8B500BFB1
:08402400F8BC08BC9E46704781
:10402C0053544D33324634004D4F53493A20004DD2
:10403C0049534F3A20002053434B3A200020205341
:10404C00533A200053657475702053544D333246E7
:10405C0034205350493A0020312E302E3030322E3D
:10406C00205365747570524632345F5265636569CE
:10407C0076653A004C6F6F70524632345F5265630E
:10408C00656976653A207374617274207265616437
:10409C00000A5061636B6167653A002C20000A527C
:1040AC0065634E723A002C206C6F73744E723A003A
:1040BC002C206C6F73744D61783A002C206C6F73EC
:1040CC00744E6F773A000A0B0C0D0E0F00010203B1
:1040DC0004050000010000000200000004000000C4
:1040EC00080000001000000020000000400000004C
:1040FC00800000000001000000020000000400002D
:10410C00000800000010000000200000004000002B
:10411C000080000000000000010203040000000009
:10412C000000000001020304060708090400000057
:10413C00003001401205000004010000003C00406A
:10414C00120600000F0100000030014012050000B3
:10415C000F000000003C0040120600001900000097
:10416C0000380040120500001C0000000038004020
:10417C0012050000FFFFFFFF000000000000000020
:10418C000500000000300140120500001301000082
:10419C00003001401205000013000000003C0040FC
:1041AC00120600001A000000003800401205000042
:1041BC001D0000000038004012050000FFFFFFFF4B
:1041CC00000000000000000006000000003001406C
:1041DC00120500001401000000300140120500001F
:1041EC0014000000003C0040120600001E000000FD
:1041FC000038004012050000FFFFFFFF0000000028
:10420C000000000007000000003001401205000013
:10421C0015010000003001401205000015000000DF
:10422C00003C0040120600001F0000000038004057
:10423C0012050000FFFFFFFF00000000000000005F
:10424C000000000000440040120700000B000000BA
:10425C000010014012070000FFFFFFFF00000000EC
:10426C0000000000010000000044004012070000A4
:10427C000C0000000010014012070000FFFFFFFFC0
:10428C00000000000000000003000000004400409B
:10429C00120700000A000000001001401207000085
:1042AC000C00000000140140120800001700000070
:1042BC000010014012070000FFFFFFFF000000008C
:1042CC000000000002000000004400401207000043
:1042DC000900000000100140120700000B00000054
:1042EC0000140140120800001600000000100140EC
:1042FC0012070000FFFFFFFF00000000000000009D
:10430C0000010000000000401281000000000000CD
:10431C00000C00401282000001010000000000406F
:10432C001201010001000000000C0040120201000B
:10433C000201000000000040128101000200000098
:10434C00000C0040128201000202000000400140FB
:10435C001283000003010000000000401201020063
:10436C0003000000000C00401202020003020000D7
:10437C000040014012030100050000000000004055
:10438C0012810000060000000004004012820000B0
:10439C00070100000000014012811000070000001E
:1043AC00000400401202010008000000000001405F
:1043BC001281000009000000000001401201010000
:1043CC000A00000000000140128101000B000000F7
:1043DC0000000140120102000F000000000000402C
:1043EC0012810000100100000000014012011100B8
:1043FC0010000000000400401282010011010000B6
:10440C000000014012811100110000000004004066
:10441C001202020013000000000000401201010013
:10442C00140000000004004012820000150000007F
:10443C0000040040120201001600000000080040B9
:10444C001282000017000000000800401202010058
:10445C001800000000080040128201001801000042
:10446C0000440140128300001900000000080040C5
:10447C0012020200190100000048014012830000E2
:10448C001A00000000000040128101001D00000015
:10449C0000000140128110001E00000000000140CD
:1044AC00120111001F0000000000014012811100D8
:1044BC00FFFFFFFF000000000000000000000000F4
:1044CC0001000000020000000300000004000000D6
:1044DC0005000000060000000700000010000000AE
:1044EC0011000000000000000100000002000000AC
:1044FC00030000000400000005000000060000009E
:10450C000700000008000000090000000A0000007D
:10451C000B0000000C0000000D0000000E0000005D
:10452C000F0000001000000011000000120000003D
:10453C00130000001400000015000000160000001D
:10454C001700000018000000190000001A000000FD
:10455C001C0000001D0000001E0000001F000000D9
:10456C002D0000002E0000002F0000005000000065
:10457C0051000000060007000800000000000000C9
:10458C0000000000613200081133000845320008B9
:10459C00193200081B320008A53500082B32000820
:1045AC00E537000807380008F53300080D0A006EDF
:0C45BC00616E00696E66006F766600009C
:0845C80088F7FF7F01000000ED
:1045D00037380008FD010008D5020008AD070008C3
:0845E000FD260008D535000896
:0845E800D9010008D5270008E5
:1045F0003000000000000100100000000000024038
:104600000004024000080240000C0240001002407A
:10461000001C024000300240000000000024F400B2
:10462000580500203800002000000000140400207D
:104630007C040020E40400200000000000000000D2
:10464000000000000000000000000000000000006A
:10465000000000000000000000000000000000005A
:10466000000000000000000000000000000000004A
:044670000000000046
:040000050800385D5A
:00000001FF
